S010000051756164726F30322E7372656346
S11300000C9463010C94490C0C948B010C948B019B
S11300100C947B1F0C948B010C948B010C94631631
S11300200C9485160C948B010C948B010C94A42ACB
S11300300C948B010C941E1F0C94F71E0C948B01D2
S11300400C948D010C948B010C948B010C948B01FA
S11300500C948B01084AD73B3BCE016E84BCBFFD98
S1130060C12F3D6C74319ABD56833DDA3D00C77F84
S113007011BED9E4BB4C3E916BAAAABE000000801D
S11300803F05A84CCDB2D44EB93836A9020C50B9AC
S1130090918688083CA6AAAA2ABE000000803F06D2
S11300A064EC1B3C04BC163E3BE5B93CC93C37C27E
S11300B09E5A3D660498083EEA69AAAA3E000000DA
S11300C0803F00C1814001C0804101C0804100C126
S11300D0814001C0804100C1814000C1814001C014
S11300E0804101C0804100C1814000C1814001C004
S11300F0804100C1814001C0804101C0804100C1F4
S1130100814001C0804100C1814000C1814001C0E3
S1130110804100C1814001C0804101C0804100C1D3
S1130120814000C1814001C0804101C0804100C1C3
S1130130814001C0804100C1814000C1814001C0B3
S1130140804101C0804100C1814000C1814001C0A3
S1130150804100C1814001C0804101C0804100C193
S1130160814000C1814001C0804101C0804100C183
S1130170814001C0804100C1814000C1814001C073
S1130180804100C1814001C0804101C0804100C163
S1130190814001C0804100C1814000C1814001C053
S11301A0804101C0804100C1814000C1814001C043
S11301B0804100C1814001C0804101C0804100C133
S11301C0814000C0C101C30302C2C60607C705C5FA
S11301D0C404CC0C0DCD0FCFCE0E0ACACB0BC9096B
S11301E008C8D81819D91BDBDA1A1EDEDF1FDD1D7B
S11301F01CDC14D4D515D71716D6D21213D311D1AB
S1130200D010F03031F133F3F23236F6F737F535FA
S113021034F43CFCFD3DFF3F3EFEFA3A3BFB39F92A
S1130220F83828E8E929EB2B2AEAEE2E2FEF2DEDFA
S1130230EC2CE42425E527E7E62622E2E323E1216A
S113024020E0A06061A163A3A26266A6A767A5657A
S113025064A46CACAD6DAF6F6EAEAA6A6BAB69A9EA
S1130260A86878B8B979BB7B7ABABE7E7FBF7DBDFA
S1130270BC7CB47475B577B7B67672B2B373B1712A
S113028070B05090915193535292965657975595FA
S113029094549C5C5D9D5F9F9E5E5A9A9B5B9959AA
S11302A05898884849894B8B8A4A4E8E8F4F8D4D7A
S11302B04C8C4484854587474686824243834181EA
S11302C080403B0C420C11241FBECFE5D8E0DEBFBA
S11302D0CDBF10E0A0E6B0E0ECEAFEE502C0059078
S11302E00D92A03AB107D9F727E0A0EAB0E001C027
S11302F01D92A63AB207E1F712E0C4ECD2E004C0C2
S11303002297FE010E940C2FC23CD107C9F70E941C
S11303101F150C94492F0C9400001F920F920FB6D6
S11303200F9211242F933F934F935F936F937F9377
S11303308F939F93AF93BF93EF93FF9364B175B182
S113034080E090E00E948E2C2DEC3CEC4DE052E4D9
S11303500E94A92D20E030E040E85AE30E94A92D34
S1130360209191003091920040919300509194001B
S11303700E942D2B6093670670936806809369062C
S113038090936A068FEC86B9FF91EF91BF91AF917C
S11303909F918F917F916F915F914F913F912F9199
S11303A00F900FBE0F901F9018958FEC86B910BE5A
S11303B017B808950F931F93CF93DF9380E00E94A3
S11303C02A1386EA83B983E00E942A1382E383B95D
S11303D083E00E942A1381E00E942A1387EA83B9EA
S11303E083E00E942A1384E00E942A1313B184E05C
S11303F00E942A1323B1C7EED5E088819981AA818E
S1130400BB818093F3059093F405A093F505B09315
S1130410F605722F60E0612B882777FD8095982F71
S11304200E94902C27E137EB41E55BEB0E94A92D5C
S113043041E00E94E00B2091330530913405409156
S11304403505509136050E942D2B2091AF05309132
S1130450B0054091B1055091B2050E94A92D688361
S113046079838A839B8384E00E942A1313B184E0F6
S11304700E942A1323B1C3EED5E088819981AA8111
S1130480BB818093EF059093F005A093F105B093A1
S1130490F205722F60E0612B882777FD8095982FF5
S11304A00E94902C27E137EB41E55BEB0E94A92DDC
S11304B042E00E94E00B20912F05309130054091DD
S11304C03105509132050E942D2B2091AB053091BE
S11304D0AC054091AD055091AE050E94A92D6883ED
S11304E079838A839B8384E00E942A1313B185E075
S11304F00E942A1303B182E00E942A13CBEED5E0B6
S113050088819981AA81BB818093F7059093F8052E
S1130510A093F905B093FA05702F60E0612B88274A
S113052077FD8095982F0E94902C27E137EB41E5C9
S11305305BE30E94A92D43E00E94E00B2091370564
S1130540309138054091390550913A050E942D2B80
S11305502091B3053091B4054091B5055091B6058D
S11305600E94A92D688379838A839B8380E0DF912D
S1130570CF911F910F910895CF9380E00E942A1389
S1130580C6EAC3B983E00E942A1381E383B983E0F6
S11305900E942A138BE083B983E00E942A1382E02D
S11305A00E942A1380E00E942A13C3B983E00E94A8
S11305B02A138CE283B983E00E942A1387E083B96B
S11305C083E00E942A1382E00E942A1380E00E94A2
S11305D02A13C3B983E00E942A138DE283B983E00E
S11305E00E942A1388E083B983E00E942A1382E0E0
S11305F00E942A1380E0CF910895AF92BF92CF92C8
S1130600DF92EF92FF920F931F93CF93DF93CFE28A
S1130610D5E02091E3053091E4054091E505509142
S1130620E605688179818A819B810E942C2BC62EE4
S1130630D72E688379838A839B8303E315E0209113
S1130640E7053091E8054091E9055091EA05F80184
S113065060817181828193810E942C2BA62EB72EFA
S1130660F80160837183828393830F2EF7E3EF2E67
S1130670F5E0FF2EF02D2091EB053091EC05409133
S1130680ED055091EE05F7016081718182819381BE
S11306900E942C2B20E030E040E85FE30E942D2BE9
S11306A09B01F7016083718382839383C092DF018E
S11306B0D092E00180913105909132059093E2014E
S11306C08093E101A092E301B092E40180913505A9
S11306D0909136059093E6018093E5013093E8010B
S11306E02093E7018091390590913A059093EA01AE
S11306F08093E901188219821A821B82F801108200
S1130700118212821382F7011082118212821382E3
S1130710DF91CF911F910F91FF90EF90DF90CF90D9
S1130720BF90AF90089580E00E942A138EEE83B9A3
S113073083E00E942A1384EF83B983E00E942A1382
S11307408EE283B983E00E942A1382E00E942A1376
S113075080E0089580E00E942A138EEE83B983E03E
S11307600E942A1384E383B983E00E942A1384EF4E
S113077083B983E00E942A1382E00E942A1380E056
S113078008950F931F93CF93DF9380E00E942A1361
S1130790DEEED3B983E00E942A138AEA83B983E0A8
S11307A00E942A1381E00E942A13CFEEC3B983E08A
S11307B00E942A1384E00E942A1303B185E00E9458
S11307C02A1313B182E00E942A13902F80E0812B18
S11307D09093A9008093A80080E00E942A13D3B9C3
S11307E083E00E942A138CEA83B983E00E942A13CF
S11307F081E00E942A13C3B983E00E942A1384E093
S11308000E942A1303B185E00E942A1313B182E0E7
S11308100E942A13902F80E0812B9093AB00809349
S1130820AA0080E00E942A13D3B983E00E942A130D
S11308308EEA83B983E00E942A1381E00E942A137E
S1130840C3B983E00E942A1384E00E942A1303B1EF
S113085085E00E942A1313B182E00E942A13902F8C
S113086080E0812B9093AD008093AC0080E00E94E7
S11308702A13D3B983E00E942A1380EB83B983E05F
S11308800E942A1381E00E942A13C3B983E00E94C4
S11308902A1384E00E942A1303B185E00E942A13DC
S11308A013B182E00E942A13902F80E0812B909351
S11308B0AF008093AE0080E00E942A13D3B983E096
S11308C00E942A1382EB83B983E00E942A1381E0F9
S11308D00E942A13C3B983E00E942A1384E00E9471
S11308E02A1303B185E00E942A1313B182E00E9407
S11308F02A13902F80E0812B9093B1008093B00055
S113090080E00E942A13D3B983E00E942A1384EB67
S113091083B983E00E942A1381E00E942A13C3B999
S113092083E00E942A1384E00E942A1303B185E025
S11309300E942A1313B182E00E942A13902F80E0B0
S1130940812B9093B3008093B20080E00E942A131D
S1130950D3B983E00E942A1386EB83B983E00E9413
S11309602A1381E00E942A13C3B983E00E942A1348
S113097084E00E942A1303B185E00E942A1313B174
S113098082E00E942A13902F80E0812B9093B5007F
S11309908093B40080E00E942A13D3B983E00E94BC
S11309A02A1388EB83B983E00E942A1381E00E9412
S11309B02A13C3B983E00E942A1384E00E942A13F5
S11309C003B185E00E942A1313B182E00E942A1326
S11309D0902F80E0812B9093B7008093B60080E045
S11309E00E942A13D3B983E00E942A138AEB83B9A5
S11309F083E00E942A1381E00E942A13C3B983E092
S1130A000E942A1384E00E942A1303B185E00E9405
S1130A102A1313B182E00E942A13902F80E0812BC5
S1130A209093B9008093B80080E00E942A13D3B950
S1130A3083E00E942A138CEB83B983E00E942A137B
S1130A4081E00E942A13C3B983E00E942A1384E040
S1130A500E942A1303B185E00E942A1313B182E095
S1130A600E942A13902F80E0812B9093BB008093E7
S1130A70BA0080E00E942A13D3B983E00E942A13AB
S1130A808EEB83B983E00E942A1381E00E942A132B
S1130A90C3B983E00E942A1384E00E942A13D3B1CD
S1130AA085E00E942A13C3B182E00E942A139D2F7D
S1130AB080E08C2B9093BD008093BC0080E0DF919C
S1130AC0CF911F910F910895CF92DF92EF92FF92F1
S1130AD00F931F93CF93DF93CDB7DEB7A8970FB6CD
S1130AE0F894DEBF0FBECDBF8091B2009091B300E9
S1130AF04091A0005091A1006091A2007091A300C8
S1130B009A01AB01281B390B41095109A091B0008E
S1130B10B091B1000E94F72EDC01CB01072E7FE0DB
S1130B20B595A795979587957A95D1F7702D8DA34F
S1130B309EA3AFA3B8A70DA11EA12FA138A56091B4
S1130B40BA007091BB00CB01AA2797FDA095BA2FDC
S1130B50BC01CD01052E5BE0660F771F881F991F2E
S1130B605A95D1F7502DC090BC00D090BD00EE2412
S1130B70D7FCE094FE2CA90198012C0D3D1D4E1DBF
S1130B805F1D0E94CF2E29A33AA34BA35CA34DA1C2
S1130B905EA16FA178A589A19AA1ABA1BCA1840F84
S1130BA0951FA61FB71F8D8B9E8BAF8BB88F8D891A
S1130BB09E89AF89B88D0896A11DB11DBC01CD01D8
S1130BC0689413F895958795779567951694D1F75A
S1130BD00E94902C2DEC3CEC4CEC5DE30E94A92D82
S1130BE06093BB057093BC058093BD059093BE05CF
S1130BF08D899E89AF89B88D805A9F40A109B1091A
S1130C00898B9A8BAB8BBC8B29893A894B895C89FC
S1130C1069897A898B899C89E091B600F091B70043
S1130C200E949D2E9B01AC01012E1CE05595479519
S1130C30379527951A95D1F7102DDF010E94022FC1
S1130C40DC01CB01072E7BE0B595A7959795879599
S1130C507A95D1F7702D8DA39EA3AFA3B8A7298948
S1130C603A894B895C89A091AA00B091AB000E949B
S1130C70022FDC01CB01072E7BE0B595A795979554
S1130C8087957A95D1F7702D89A39AA3ABA3BCA3BA
S1130C904DA15EA16FA178A589A19AA1ABA1BCA128
S1130CA0840F951FA61FB71F8D8F9E8FAF8FB8A37C
S1130CB08091A8009091A900AA2797FDA095BA2F2A
S1130CC089879A87AB87BC8789859A85AB85BC85DC
S1130CD04D8D5E8D6F8D78A1880F991FAA1FBB1F44
S1130CE0880F991FAA1FBB1F840F951FA61FB71F2C
S1130CF0880F991FAA1FBB1F880F991FAA1FBB1F0C
S1130D00880F991FAA1FBB1F89879A87AB87BC8747
S1130D1049855A856B857C854E5F5F4F6F4F7F4F4A
S1130D20DB01CA011AF40396A11DB11DB595A7955F
S1130D3097958795B595A79597958795898F9A8F58
S1130D40AB8FBC8F29893A894B895C89A091AC000F
S1130D50B091AD000E94022FDC01CB01072E7DE093
S1130D60B595A795979587957A95D1F7702D8DA30D
S1130D709EA3AFA3B8A729893A894B895C8969895D
S1130D807A898B899C89E091B400F091B5000E9426
S1130D909D2E9B01AC01012E1CE05595479537957E
S1130DA027951A95D1F7102DDF010E94022FBB273A
S1130DB097FDB095AB2F89A39AA3ABA3BCA34DA178
S1130DC05EA16FA178A589A19AA1ABA1BCA1840F52
S1130DD0951FA61FB71F0296A11DB11DB595A79516
S1130DE097958795B595A795979587958D8F9E8FA0
S1130DF0AF8FB8A38D8D9E8DAF8DB8A19C01AD0131
S1130E0030584F4F5F4FA091AE00B091AF000E9499
S1130E10F72EDC01CB01072E7FE0B695A7959795B9
S1130E2087957A95D1F7702D8D839E83AF83B8878C
S1130E30898D9A8DAB8DBC8D4091A4005091A500F5
S1130E406091A6007091A7009A01AB01281B390B91
S1130E504A0B5B0BAAE6B8E10E94F72E69837A83FA
S1130E608B839C8389819A81AB81BC81BB238CF069
S1130E7089819A81AB81BC812D813E814F815885C6
S1130E80BC01CD01660F771F881F991F0E94AD2EEC
S1130E900EC069817A818B819C812D813E814F8135
S1130EA058850E94AD2E220F331F441F551F2D87D6
S1130EB03E874F87588B4D855E856F8578898D85F4
S1130EC09E85AF85B889252F362F472F552747FD97
S1130ED05A95692F7A2F8B2F992787FD9A950E940F
S1130EE09D2E6DA37EA38FA398A72DA13EA14FA1F4
S1130EF058A5AEEDBBE00E94F72EBB2797FDB09539
S1130F00AB2F8DA39EA3AFA3B8A72D853E854F8598
S1130F105889A3E4B3EE0E94052FBB2797FDB09533
S1130F20AB2F89A39AA3ABA3BCA30DA11EA12FA190
S1130F3038A549A15AA16BA17CA18D859E85AF8559
S1130F40B889400F511F621F731F4153514F6F4F98
S1130F507F4F689413F87595679557954795169440
S1130F60D1F78A019B01080F191F2A1F3B1FC901D2
S1130F70B8010E94902C20919500309196004091E8
S1130F809700509198000E94A92D6093BF0570931B
S1130F90C0058093C1059093C205A8960FB6F89436
S1130FA0DEBF0FBECDBFDF91CF911F910F91FF9098
S1130FB0EF90DF90CF9008950F931F93CF93DF931B
S1130FC0CDB7DEB72C970FB6F894DEBF0FBECDBFFA
S1130FD080E00E942A138EEE83B983E00E942A13D4
S1130FE086EF83B983E00E942A1381E00E942A13CA
S1130FF08FEE83B983E00E942A1384E00E942A13AF
S113100083B190E0A0E0B0E08D839E83AF83B88786
S113101084E00E942A1383B190E0A0E0B0E08987C5
S11310209A87AB87BC8785E00E942A1383B190E03E
S1131030A0E0B0E089839A83AB83BC8382E00E9402
S11310402A130D811E812F81388589859A85AB8568
S1131050BC8549815A816B817C81980111270027C5
S1131060BA2FA92F982F8827802B912BA22BB32B33
S1131070842B952BA62BB72B689414F8B595A795BC
S1131080979587951694D1F78093A4009093A50023
S1131090A093A600B093A7000E94640580E02C965C
S11310A00FB6F894DEBF0FBECDBFDF91CF911F9175
S11310B00F910895CF93DF9380E00E942A138EEE60
S11310C083B983E00E942A1386EF83B983E00E94E8
S11310D02A1381E00E942A138FEE83B983E00E94D1
S11310E02A1384E00E942A13D3B185E00E942A13B4
S11310F0C3B182E00E942A139D2F80E08C2BAA2783
S113110097FDA095BA2F8093A0009093A100A0937F
S1131110A200B093A3000E94640580E0DF91CF9108
S113112008956F927F928F929F92AF92BF92CF92C7
S1131130DF92EF92FF920F931F93CF93DF93EC0113
S1131140CB01BA0168017901688B798B8A8B9B8BFF
S11311500C8B1D8B2E8B3F8B188219821A821B825B
S11311601C821D821E821F82188619861A861B867F
S11311701C861D861E861F862BED3FE049E450E445
S11311800E94A92DA70196010E94FA2B0E94572EB6
S11311906B017C01688F798F8A8F9B8F23EF34E0FA
S11311A045EB5FE30E94A92D662E772E882E992E9B
S11311B0A7019601C701B6010E94A92DE62EF72EBC
S11311C0082F192F20E030E040E85FE3662D772DEB
S11311D0882D992D0E942D2B2E2D3F2D402F512FE0
S11311E00E942D2BA62EB72EC82ED92E862F9B2DCE
S11311F0AC2DBD2D8C8F9D8FAE8FBF8F262D372D9F
S1131200482D592D60E070E080E89FE30E942C2B6C
S11312109B01AC016E2D7F2D802F912F0E942D2BD1
S11312202A2D3B2D4C2D5D2D0E94FA2B68AB79ABFA
S11312308AAB9BAB20E030E040E85FE36E2D7F2D6E
S1131240802F912F0E942C2B9B01AC010E942D2BEF
S11312502A2D3B2D4C2D5D2D0E94FA2B6CA77DA7CA
S11312608EA79FA72A2D3B2D4C2D5D2D6E2D7F2DF6
S1131270802F912F0E94FA2BE62FF72F462F572FFE
S1131280682F792F48A759A76AA77BA748A359A312
S11312906AA37BA32E2F3F2F482F592F622F732F22
S11312A00E942D2B6CA37DA38EA39FA3DF91CF91CE
S11312B01F910F91FF90EF90DF90CF90BF90AF9070
S11312C09F908F907F906F9008950F931F93CF936B
S11312D0DF93CDB7DEB7E4970FB6F894DEBF0FBE49
S11312E0CDBF00E010E020E830E440E050E060E8EA
S11312F07FE3CE0101960E949108E4960FB6F8941C
S1131300DEBF0FBECDBFDF91CF911F910F91089526
S113131008954F925F926F927F928F929F92AF92B5
S1131320BF92CF92DF92EF92FF92CF93DF93EC01C3
S11313306A017B0188809980AA80BB8028A139A199
S11313404AA15BA1C701B6010E94A92D2B013C0152
S11313502CA13DA14EA15FA1C501B4010E94A92DFC
S11313609B01AC01C301B2010E942D2B2B013C0156
S11313702C813D814E815F8168A579A58AA59BA5B5
S11313800E94A92D9B01AC01C301B2010E942D2B27
S11313902B013C01288539854A855B856CA57DA593
S11313A08EA59FA50E94A92D9B01AC01C301B2018A
S11313B00E942C2B2B013C012C853D854E855F859D
S11313C068A979A98AA99BA90E94A92D9B01AC01AE
S11313D0C301B2010E942C2B262F372F8C829D82B1
S11313E0AE82BF82C882D982EA82FB82CC86DD8645
S11313F0EE86FF86462F572F682F792F4887598707
S11314006A877B87622F732FDF91CF91FF90EF90D4
S1131410DF90CF90BF90AF909F908F907F906F9010
S11314205F904F9008956F927F928F929F92AF92A8
S1131430BF92CF92DF92EF92FF920F931F93CF93BD
S1131440DF93EC01CB01BA0168017901688B798BD8
S11314508A8B9B8B0C8B1D8B2E8B3F8B1882198256
S11314601A821B821C821D821E821F821886198684
S11314701A861B861C861D861E861F862BED3FE062
S113148049E450E40E94A92DA70196010E94FA2B79
S11314900E94572E6B017C01688F798F8A8F9B8FF6
S11314A023EF34E045EB5FE30E94A92D662E772EEF
S11314B0882E992EA7019601C701B6010E94A92D75
S11314C0E62EF72E082F192F20E030E040E85FE3E6
S11314D0662D772D882D992D0E942D2B2E2D3F2D95
S11314E0402F512F0E942D2BA62EB72EC82ED92E59
S11314F0862F9B2DAC2DBD2D8C8F9D8FAE8FBF8FD6
S1131500262D372D482D592D60E070E080E89FE3AB
S11315100E942C2B9B01AC016E2D7F2D802F912FCF
S11315200E942D2B2A2D3B2D4C2D5D2D0E94FA2B34
S113153068AB79AB8AAB9BAB20E030E040E85FE37B
S11315406E2D7F2D802F912F0E942C2B9B01AC019F
S11315500E942D2B2A2D3B2D4C2D5D2D0E94FA2B04
S11315606CA77DA78EA79FA72A2D3B2D4C2D5D2D03
S11315706E2D7F2D802F912F0E94FA2BE62FF72FAF
S1131580462F572F682F792F48A759A76AA77BA7FB
S113159048A359A36AA37BA32E2F3F2F482F592F6B
S11315A0622F732F0E942D2B6CA37DA38EA39FA368
S11315B0DF91CF911F910F91FF90EF90DF90CF902B
S11315C0BF90AF909F908F907F906F9008958130DF
S11315D09105A1F46F3F7F4F31F58AE591E00E94B8
S11315E0650986E291E00E94650982EF90E00E941D
S11315F065098EEB90E00E9465090895892B99F4A2
S11316006F3F7F4F81F48EEB90E00E94880982EF58
S113161090E00E94880986E291E00E9488098AE5A8
S113162091E00E9488090895EF92FF920F931F930F
S1131630CF93DF93CDB7DEB7C05DD1090FB6F89471
S1131640DEBF0FBECDBF0F2EF7EBEF2EF5E0FF2E62
S1131650F02DF701408151816281738100E010E037
S113166024E733E4CE0183569F4F0E94910884E31C
S1131670FE01E356FF4FAAE5B1E001900D928A9571
S1131680E1F7CE0183569F4F0E948809F7014081FC
S113169051816281738100E010E024E733E4CE01DC
S11316A087599F4F0E94910884E3FE01E759FF4F39
S11316B0A6E2B1E001900D928A95E1F7CE01875937
S11316C09F4F0E948809F701408151816281738193
S11316D000E010E024E733E4CE01C5960E949108AF
S11316E084E3FE01F596A2EFB0E001900D928A9595
S11316F0E1F7CE01C5960E948809F7014081518126
S11317006281738100E010E024E733E4CE010196A6
S11317100E94910884E3FE013196AEEBB0E00190A3
S11317200D928A95E1F7CE0101960E948809C05373
S1131730DF4F0FB6F894DEBF0FBECDBFDF91CF9160
S11317401F910F91FF90EF9008950F931F93CF93E4
S1131750DF93C7EBD5E0488159816A817B8100E042
S113176010E024E733E48AE591E00E94130A4881FB
S113177059816A817B8100E010E024E733E486E24A
S113178091E00E94130A488159816A817B8100E0BB
S113179010E024E733E482EF90E00E94130A4881CA
S11317A059816A817B8100E010E024E733E48EEB09
S11317B090E00E94130ADF91CF911F910F91089539
S11317C0423059F0433081F04130A9F4AB01BC01FF
S11317D08AE591E00E94890912C0AB01BC0186E24E
S11317E091E00E9489090BC0AB01BC0182EF90E03B
S11317F00E94890904C060E070E080E090E00895F0
S11318004F925F926F927F928F929F92AF92BF920C
S1131810CF92DF92EF92FF920F931F9349015A01E7
S1131820670178019B01AC01C701B6010E94A92D93
S11318302B013C01A701960160E070E080E89FE382
S11318400E942C2BA50194010E94A92D9B01AC019F
S1131850C301B2010E942D2B1F910F91FF90EF90B5
S1131860DF90CF90BF90AF909F908F907F906F90BC
S11318705F904F9008956FEF7FEF81E090E00E94BA
S1131880E70A08956FEF7FEF80E090E00E94E70A97
S113189008951F920F920FB60F9211242F933F9326
S11318A04F935F936F937F938F939F93AF93BF9364
S11318B0EF93FF9305B600FC27C082B770919001A7
S11318C060E0680F711D80918E0190918F01681BFB
S11318D0790B62957295707F7627607F762780E01A
S11318E090E00E948E2C20E030E04FEA55E40E9404
S11318F0FA2B6093C3057093C4058093C505909338
S1131900C60583E085BF0CC022B79091900180E0AA
S1131910820F911D90938F0180938E0182E085BF89
S1131920FF91EF91BF91AF919F918F917F916F91B3
S11319305F914F913F912F910F900FBE0F901F9089
S1131940189583E085BF80E48BBF0895CF9380E032
S11319500E942A13CCE3C3B983E00E942A1313B86C
S113196083E00E942A1380E783B983E00E942A134C
S113197082E00E942A1380E00E942A13C3B983E004
S11319800E942A1381E083B983E00E942A1380E233
S113199083B983E00E942A1382E00E942A1380E024
S11319A00E942A13C3B983E00E942A1382E083B9F8
S11319B083E00E942A1380E883B983E00E942A13FB
S11319C082E00E942A1380E0CF910895EF92FF9263
S11319D00F931F93CF93DF9380E00E942A138CE32D
S11319E083B983E00E942A1383E083B90E942A13F7
S11319F081E00E942A138DE383B983E00E942A13B5
S1131A0084E00E942A1303B184E00E942A1313B1D4
S1131A1084E00E942A13D3B184E00E942A13C3B144
S1131A2084E00E942A13E3B085E00E942A13F3B0F5
S1131A3082E00E942A137E2D60E06F29882777FDBB
S1131A408095982F0E94902C20E030E44BEA54E4D7
S1131A500E94FA2B20918F053091900540919105B9
S1131A60509192050E942D2B60931F0670932006BF
S1131A708093210690932206702F60E0612B8827C3
S1131A8077FD8095982F0E94902C20E030E44BEA5B
S1131A9054E40E94FA2B20919305309194054091CF
S1131AA09505509196050E942D2B60932306709303
S1131AB0240680932506909326067D2F60E06C2BE8
S1131AC0882777FD8095982F0E94902C20E030E4A1
S1131AD04BEA54E40E94FA2B209197053091980523
S1131AE04091990550919A050E942D2B60932706E9
S1131AF0709328068093290690932A0680E0DF914C
S1131B00CF911F910F91FF90EF9008950F931F9322
S1131B10CF93DF93062F172FD82FC92F20E030E063
S1131B2044EB53E40E949E2D8823B4F020E030E07F
S1131B3044EB53E4602F712F8D2F9C2F0E942C2B8C
S1131B40062F172FD82FC92F20E030E044EB53E4A1
S1131B500E949E2D882354F720E030E0A901602FD5
S1131B60712F8D2F9C2F0E94F32B8823ACF420E03F
S1131B7030E044EB53E4602F712F8D2F9C2F0E9493
S1131B802D2B062F172FD82FC92F20E030E0A901C5
S1131B900E94F32B88235CF3602F712F8D2F9C2FD1
S1131BA0DF91CF911F910F9108954F925F926F92A1
S1131BB07F928F929F92AF92BF92CF92DF92EF92D9
S1131BC0FF92CF93DF93CDB7DEB7C056D1090FB6DE
S1131BD0F894DEBF0FBECDBFC090E305D090E405FE
S1131BE0E090E505F090E6058090E7059090E80523
S1131BF0A090E905B090EA05A7019601C701B601D6
S1131C000E94A92D2B013C01A5019401C501B40139
S1131C100E94A92D9B01AC01C301B2010E942D2B8E
S1131C200E94162E2091EB053091EC054091ED05B4
S1131C305091EE050E94A02B698F7A8F8B8F9C8F19
S1131C4089829A82AB82BC82F7FAF094F7F8F09416
S1131C50CD82DE82EF82F88619861A861B861C8660
S1131C6080911F0690912006A0912106B091220632
S1131C708D8B9E8BAF8BB88F809123069091240619
S1131C80A0912506B0912606898B9A8BAB8BBC8BD1
S1131C908091270690912806A0912906B0912A06E2
S1131CA08D879E87AF87B88B698D7A8D8B8D9C8D40
S1131CB00E94F72B4B015C01698D7A8D8B8D9C8D75
S1131CC00E94F72B6B017C0189819A81AB81BC81D5
S1131CD089A79AA7ABA7BCA749805A806B807C8050
S1131CE08D899E89AF89B88D8DA79EA7AFA7B8AB04
S1131CF0698D7A8D8B8D9C8D0E94F72B69AB7AABA5
S1131D008BAB9CAB89819A81AB81BC818DAB9EAB43
S1131D10AFABB8AF8D819E81AF81B88589AF9AAFE3
S1131D20ABAFBCAF698D7A8D8B8D9C8D0E940C2ED0
S1131D3021966CAF7DAF8EAF9FAF219789859A8531
S1131D40AB85BC8525968CAF9DAFAEAFBFAF259755
S1131D5089899A89AB89BC8929968CAF9DAFAEAF2E
S1131D60BFAF2997698D7A8D8B8D9C8D0E94F72B3F
S1131D702D966CAF7DAF8EAF9FAF2D9789819A81E1
S1131D80AB81BC8161968CAF9DAFAEAFBFAF6197A5
S1131D9089859A85AB85BC8565968CAF9DAFAEAFC2
S1131DA0BFAF6597698D7A8D8B8D9C8D0E940C2EAB
S1131DB069966CAF7DAF8EAF9FAF69978D819E8121
S1131DC0AF81B8856D968CAF9DAFAEAFBFAF6D9749
S1131DD08D859E85AF85B889A1968CAF9DAFAEAF3A
S1131DE0BFAFA197A701960160E070E080E89FE390
S1131DF00E942C2B6B017C01A301920169A57AA599
S1131E008BA59CA50E94A92D9B01AC01C701B6011D
S1131E100E94A92D9B01AC01C501B4010E942D2B88
S1131E202DA53EA54FA558A90E94A92D6B017C01A3
S1131E3029A93AA94BA95CA960E070E080E89FE376
S1131E400E942C2B2DA93EA94FA958AD0E94A92D63
S1131E5029AD3AAD4BAD5CAD0E94A92D4B015C019F
S1131E6025962CAD3DAD4EAD5FAD259721966CAD5D
S1131E707DAD8EAD9FAD21970E94A92D9B01AC0134
S1131E80C501B4010E942C2B29962CAD3DAD4EAD5D
S1131E905FAD29970E94A92D9B01AC01C701B60132
S1131EA00E942D2B6B017C012D962CAD3DAD4EADCA
S1131EB05FAD2D9760E070E080E89FE30E942C2BDB
S1131EC061962CAD3DAD4EAD5FAD61970E94A92DDD
S1131ED065962CAD3DAD4EAD5FAD65970E94A92DC5
S1131EE04B015C016D962CAD3DAD4EAD5FAD6D9774
S1131EF069966CAD7DAD8EAD9FAD69970E94A92D9D
S1131F009B01AC01C501B4010E942D2BA1962CADFF
S1131F103DAD4EAD5FADA1970E94A92D9B01AC01D3
S1131F20C701B6010E942D2B462F572F682F792FFA
S1131F304DA35EA36FA378A7698D7A8D8B8D9C8D3D
S1131F400E94F72B6B017C014D805E806F8078844A
S1131F5089819A81AB81BC8189A79AA7ABA7BCA7C9
S1131F60698D7A8D8B8D9C8D0E940C2E4B015C01AA
S1131F7089859A85AB85BC858DA79EA7AFA7B8AB8D
S1131F808D899E89AF89B88D89AB9AABABABBCAB5D
S1131F90698D7A8D8B8D9C8D0E94F72B6DAB7EABFA
S1131FA08FAB98AF698D7A8D8B8D9C8D0E94F72BAA
S1131FB069AF7AAF8BAF9CAF8D819E81AF81B885BD
S1131FC021968CAF9DAFAEAFBFAF21978D819E811F
S1131FD0AF81B88525968CAF9DAFAEAFBFAF2597C7
S1131FE089899A89AB89BC8929968CAF9DAFAEAF9C
S1131FF0BFAF2997698D7A8D8B8D9C8D0E94F72BAD
S11320002D966CAF7DAF8EAF9FAF2D978D819E8146
S1132010AF81B88561968CAF9DAFAEAFBFAF61970E
S113202089859A85AB85BC8565968CAF9DAFAEAF2F
S1132030BFAF6597698D7A8D8B8D9C8D0E940C2E18
S113204069966CAF7DAF8EAF9FAF699789819A8196
S1132050AB81BC816D968CAF9DAFAEAFBFAF6D97BA
S11320608D859E85AF85B889A1968CAF9DAFAEAFA7
S1132070BFAFA197A701960160E070E080E89FE3FD
S11320800E942C2BA30192010E94A92D29A53AA5F7
S11320904BA55CA50E94A92D6B017C012DA53EA535
S11320A04FA558A9C501B4010E94A92D9B01AC01FB
S11320B0C701B6010E942D2B29A93AA94BA95CA9F5
S11320C00E94A92D6B017C0129AD3AAD4BAD5CADED
S11320D060E070E080E89FE30E942C2B21962CADF9
S11320E03DAD4EAD5FAD21970E94A92D25962CAD37
S11320F03DAD4EAD5FAD25970E94A92D9B01AC016E
S11321006DA97EA98FA998AD0E942D2B29962CAD7F
S11321103DAD4EAD5FAD29970E94A92D9B01AC0149
S1132120C701B6010E942D2B6B017C012D962CADAD
S11321303DAD4EAD5FAD2D9760E070E080E89FE36C
S11321400E942C2B61962CAD3DAD4EAD5FAD6197D9
S11321500E94A92D65962CAD3DAD4EAD5FAD659742
S11321600E94A92D4B015C016D962CAD3DAD4EAD89
S11321705FAD6D9769966CAD7DAD8EAD9FAD699782
S11321800E94A92D9B01AC01C501B4010E942C2B16
S1132190A1962CAD3DAD4EAD5FADA1970E94A92D8A
S11321A09B01AC01C701B6010E942D2B462F572F6E
S11321B0682F792F49A35AA36BA37CA3698D7A8DC9
S11321C08B8D9C8D0E94F72B6B017C0149845A8472
S11321D06B847C8489819A81AB81BC8189A79AA70D
S11321E0ABA7BCA7698D7A8D8B8D9C8D0E940C2E1C
S11321F04B015C018D819E81AF81B8858DA79EA71F
S1132200AFA7B8AB8D899E89AF89B88D89AB9AABDE
S1132210ABABBCAB698D7A8D8B8D9C8D0E94F72BFB
S11322206DAB7EAB8FAB98AF89859A85AB85BC854A
S113223089AF9AAFABAFBCAF8D819E81AF81B885BA
S113224021968CAF9DAFAEAFBFAF2197698D7A8DCC
S11322508B8D9C8D0E940C2E25966CAF7DAF8EAF1E
S11322609FAF259789819A81AB81BC8129968CAFD8
S11322709DAFAEAFBFAF299789899A89AB89BC89D5
S11322802D968CAF9DAFAEAFBFAF2D97698D7A8D74
S11322908B8D9C8D0E94F72B61966CAF7DAF8EAFBA
S11322A09FAF6197698D7A8D8B8D9C8D0E94F72BE2
S11322B065966CAF7DAF8EAF9FAF659789859A8524
S11322C0AB85BC8569968CAF9DAFAEAFBFAF699748
S11322D089859A85AB85BC856D968CAF9DAFAEAF75
S11322E0BFAF6D978D859E85AF85B889A1968CAF5C
S11322F09DAFAEAFBFAFA197A701960160E070E0BC
S113230080E89FE30E942C2BA30192010E94A92D37
S113231029A53AA54BA55CA50E94A92D6B017C01BA
S11323202DA53EA54FA558A9C501B4010E94A92D0C
S11323309B01AC01C701B6010E942C2B29A93AA923
S11323404BA95CA90E94A92D6B017C012DA93EA972
S11323504FA958AD60E070E080E89FE30E942C2B09
S113236029AD3AAD4BAD5CAD0E94A92D21962CADA3
S11323703DAD4EAD5FAD21970E94A92D4B015C018F
S113238029962CAD3DAD4EAD5FAD299725966CAD2C
S11323907DAD8EAD9FAD25970E94A92D9B01AC010B
S11323A0C501B4010E942D2B2D962CAD3DAD4EAD33
S11323B05FAD2D970E94A92D9B01AC01C701B60109
S11323C00E942D2B6B017C0165962CAD3DAD4EAD6D
S11323D05FAD659760E070E080E89FE30E942C2B7E
S11323E04B015C016D962CAD3DAD4EAD5FAD6D976F
S11323F069966CAD7DAD8EAD9FAD69970E94A92D98
S11324009B01AC01C501B4010E94A92D9B01AC0143
S113241061966CAD7DAD8EAD9FAD61970E942D2B05
S1132420A1962CAD3DAD4EAD5FADA1970E94A92DF7
S11324309B01AC01C701B6010E942D2B462F572FDB
S1132440682F792F4D8F5E8F6F8F78A329A13AA1C2
S11324504BA15CA16DA17EA18FA198A50E94A02B88
S1132460C62ED72EE82EF92E20E030E0A9010E94D6
S1132470F32B88237CF42BED3FE049EC50E46C2DE6
S11324807D2D8E2D9F2D0E942D2BC62ED72EE82E0E
S1132490F92E1AC02BED3FE049EC50E46C2D7D2D54
S11324A08E2D9F2D0E949E2D181674F42BED3FE067
S11324B049EC50E46C2D7D2D8E2D9F2D0E942C2BEC
S11324C0C62ED72EE82EF92E20E030E044E353E464
S11324D06C2D7D2D8E2D9F2D0E94A92D2BED3FE07F
S11324E049E450E40E94FA2B20918B0530918C052D
S11324F040918D0550918E050E942D2B862E972E8E
S1132500A82EB92EC62ED72EE82EF92E20E030E0C4
S113251044EB53E40E949E2D88237CF020E030E0BD
S113252044EB53E4682D792D8A2D9B2D0E942C2B8E
S1132530C62ED72EE82EF92E19C020E030E0A901CE
S1132540682D792D8A2D9B2D0E94F32B882374F4FA
S113255020E030E044EB53E4682D792D8A2D9B2D47
S11325600E942D2BC62ED72EE82EF92E4C2D5D2D34
S11325706E2D7F2D40937F065093800660938106D5
S113258070938206698D7A8D8B8D9C8D20E030E06E
S113259044E353E40E94A92D2BED3FE049E450E4C9
S11325A00E94FA2B9F772091A3053091A4054091B6
S11325B0A5055091A6050E94F32B882364F48C2D65
S11325C09D2DAE2DBF2D80937B0690937C06A0930A
S11325D07D06B0937E0680E0C05ADF4F0FB6F894B4
S11325E0DEBF0FBECDBFDF91CF91FF90EF90DF90A4
S11325F0CF90BF90AF909F908F907F906F905F909F
S11326004F900895CF93C82F80E00E942A138CE343
S113261083B983E00E942A1313B883E00E942A132B
S1132620C13039F018F0C23051F406C088E783B9DC
S113263008C089E783B905C08AE783B902C088E77F
S113264083B983E00E942A1382E00E942A1380E067
S1132650CF910895823051F030F0843069F048F021
S1132660853081F40CC094EA96BF0CC084E986BF1F
S11326700EC084E886BF08C084EC86BF05C084E829
S113268086BF02C0823019F006B607FEFDCF81B1C5
S1132690887F0895CF9380E00E942A13C2EDC3B9C6
S11326A083E00E942A1380E283B983E00E942A1304
S11326B08FE483B983E00E942A1382E00E942A13E4
S11326C080E00E942A13C3B983E00E942A1381E2A6
S11326D083B983E00E942A1313B883E00E942A136B
S11326E082E00E942A1380E00E942A13C3B983E087
S11326F00E942A1382E283B983E00E942A1313B84A
S113270083E00E942A1382E00E942A1380E00E9440
S11327102A13C3B983E00E942A1383E283B983E0B6
S11327200E942A1380E383B983E00E942A1382E083
S11327300E942A1380E00E942A13C3B983E00E94F6
S11327402A1384E283B983E00E942A1382E083B9C6
S113275083E00E942A1382E00E942A1380E00E94F0
S11327602A13C3B983E00E942A138EE283B983E05B
S11327700E942A1313B883E00E942A1382E00E9465
S11327802A1380E0CF9108958F929F92AF92BF92C7
S1132790CF92DF92EF92FF92CF93DF9380E00E947B
S11327A02A13D2EDD3B983E00E942A1386E283B9B7
S11327B083E00E942A1381E00E942A13C3EDC3B967
S11327C083E00E942A1385E00E942A13F3B082E07A
S11327D00E942A136F2D772767FD7095872F972FF7
S11327E00E94902C60933F067093400680934106AC
S11327F09093420680E00E942A13D3B983E00E949A
S11328002A1388EA83B983E00E942A1381E00E9494
S11328102A13C3B983E00E942A1384E00E942A1376
S1132820C3B184E00E942A1383B1C0900B06D090F8
S11328300C06E0900D06F0900E06C0921706D0929A
S11328401806E0921906F0921A06782F60E06C2BB5
S1132850882777FD8095982F0E94902C29E23CE5EB
S11328604FE05CE30E94A92D862E972EA82EB92E48
S1132870A70196010E942C2B9F7720914B05309144
S11328804C0540914D0550914E050E949E2D181601
S113289064F4882D992DAA2DBB2D80930B0690935B
S11328A00C06A0930D06B0930E0684E00E942A1332
S11328B0C3B184E00E942A1383B1C0900706D0906C
S11328C00806E0900906F0900A06C0921306D0921A
S11328D01406E0921506F0921606782F60E06C2B31
S11328E0882777FD8095982F0E94902C29E23CE55B
S11328F04FE05CE30E94A92D862E972EA82EB92EB8
S1132900A70196010E942C2B9F77209147053091B7
S113291048054091490550914A050E949E2D18167C
S113292064F4882D992DAA2DBB2D809307069093CE
S11329300806A0930906B0930A0684E00E942A13AD
S1132940C3B185E00E942A1383B1C0900F06D090D2
S11329501006E0901106F0901206C0921B06D09269
S11329601C06E0921D06F0921E06782F60E06C2B88
S1132970882777FD8095982F0E94902C4B015C014D
S113298029E23CE54FE05CE30E94A92DA7019601F2
S11329900E942C2B9F7720914F0530915005409138
S11329A05105509152050E949E2D181684F429E277
S11329B03CE54FE05CEBC501B4010E94A92D609396
S11329C00F0670931006809311069093120682E00E
S11329D00E942A1380E0DF91CF91FF90EF90DF9067
S11329E0CF90BF90AF909F908F900895CF93C82FB2
S11329F080E00E942A1382ED83B983E00E942A13A7
S1132A0083E283B983E00E942A13C13039F018F0BD
S1132A10C23051F406C080E883B908C082E883B9A3
S1132A2005C086E883B902C080E883B983E00E94C8
S1132A302A1382E00E942A1380E0CF9108952FEF99
S1132A4031EE84E0215030408040E1F700C00000C6
S1132A508FEF87BB87E084BB80E981BB81E088BBC3
S1132A6024E022BB80E89EE39093B0048093AF04FB
S1132A709093B2048093B1049093B4048093B3040C
S1132A809093B6048093B5049093B8048093B704EC
S1132A909093BA048093B9049093BC048093BB04CC
S1132AA09093BE048093BD0411B83CE030B935E383
S1132AB03A95F1F7000023BF20E03DE73BBD2ABD76
S1132AC023E22FBD29E12EBD29E529BF99BD88BD8B
S1132AD00E94D5010E94A10C7894E12C00E011EE33
S1132AE020E030E040E061E080E00E94A6160E9411
S1132AF03A170E9473260E9460210E94140B0E94C0
S1132B00BF1F0E9439220E9449170E94D50DF7CF9A
S1132B10CF93DF93FC01683E23E0720708F1CA01FA
S1132B20860F971F8C349440E8F441155105E1F069
S1132B30DB01AA0FBB1FA75EB340CA01880F991F10
S1132B408E0F9F1FED0111962C91119720831296E1
S1132B502881218332968E179F07A1F780E005C054
S1132B6081E003C081E001C080E0DF91CF9108954E
S1132B70CF93DF93FC01603B34E0730708F445C056
S1132B80CA01860F971F8C3D954008F040C0222350
S1132B9039F02130F1F541155105E9F480E03CC0EC
S1132BA041155105C1F1DB01AA0FBB1FAD5CB74054
S1132BB0CA01880F991F8E0F9F1FED0111962C914A
S1132BC0119720831296288121833296E817F907FA
S1132BD0A1F780E021C0EB01CC0FDD1FCD5CD74015
S1132BE09A01220F331F2E0F3F1FB081A0E0B9833B
S1132BF0A88381813296AD01482BCA0189939993A8
S1132C00E217F30791F780E007C081E005C081E097
S1132C1003C080E001C080E0DF91CF91089581E09E
S1132C20089581E00895CF92DF92EF92FF920F937F
S1132C301F93CF93DF93082F192FC0E0D0E00F2EFE
S1132C40C12CFDE7DF2EF02D0F2EF0E8EF2EFEE372
S1132C50FF2EF02DF80161917191819191918F0175
S1132C600E94622CCB0181589E438F379E4340F4CF
S1132C70FE01EE0FFF1FE155FB4F7183608316C009
S1132C8060382EE3720740F4FE01EE0FFF1FE1559A
S1132C90FB4FF182E0820AC061307D4738F0FE01CB
S1132CA0EE0FFF1FE155FB4FD182C0822196C43045
S1132CB0D10581F6DF91CF911F910F91FF90EF9095
S1132CC0DF90CF9008951F920F920FB60F921124A8
S1132CD08F939F93EF93FF93E091BF04E83050F4F8
S1132CE0F0E0EE0FFF1FE155FB4F8081918199BD0C
S1132CF088BD02C019BC18BCFF91EF919F918F91C0
S1132D000F900FBE0F901F90189578941F920F92FA
S1132D100FB60F9211248F939F938091BF04883034
S1132D2020F498B3987F892B88BB8091BF048930A5
S1132D3018F01092BF0403C08F5F8093BF049F916B
S1132D408F910F900FBE0F901F901895EF920F93D5
S1132D501F93CF93DF93C82F862F642FA901980167
S1132D60982F9150973F08F07BC08093C004CC23E8
S1132D7021F0C13009F067C033C0EAE3FDE1F0930C
S1132D80C204E093C104E5E4FDE1F093C404E093DC
S1132D90C304E6E8FDE1F093C604E093C504EEE461
S1132DA0FDE1F093C804E093C7041092CA041092A2
S1132DB0C904E2EDFDE1F093A106E093A006E4E28C
S1132DC0FEE1F0939D06E0939C06E2E6FEE1F093BB
S1132DD09F06E0939E060E2D0E94011DD82F34C03D
S1132DE0E0E2F8E1F093C204E093C104ECE2F8E11C
S1132DF0F093C404E093C304EDE6F8E1F093C60451
S1132E00E093C504E5E3F8E1F093C804E093C70454
S1132E101092CA041092C904EAEAF8E1F093A106F8
S1132E20E093A006EFE4F9E1F0939D06E0939C069D
S1132E30E5EDF9E1F0939F06E0939E060E2D0E94C6
S1132E400518D82F01C0D2E0D1110DC00E948B1EED
S1132E50882341F0C093CB0481E08093600003C0D9
S1132E60D2E001C0D3E08D2FDF91CF911F910F915C
S1132E70EF90089580916000813049F4E091C1049D
S1132E80F091C20409951092600080E0089586E0F4
S1132E900895CF93DF931F92CDB7DEB78091600082
S1132EA0811188C0CE0101960E94961E813009F0DE
S1132EB083C08981813021F0823009F07FC01AC03B
S1132EC0E091C704F091C8044FEC54E06DEC74E059
S1132ED08CEC94E00995811173C08091CC0490919D
S1132EE0C004891711F081116DC082E00E948F1E09
S1132EF080E06BC0A091CD04B091CE049C919093DE
S1132F00D10481E08093D20480916100882331F15F
S1132F10981751F0E4E6F0E021E030E08081882366
S1132F20E9F0981315C002C020E030E0F901EE0F7B
S1132F30FF1F2E0F3F1FF901EF59FF4F0180F28150
S1132F40E02D6FEC74E0CD0109958093D20406C0A6
S1132F502F5F3F4F33962031310501F78091CC0428
S1132F60882391F18091D204882399F0E091CD04D3
S1132F70F091CE049091D10490689083E091CD04B7
S1132F80F091CE04818382E090E09093D00480930A
S1132F90CF044091CF045091D0046091CD0470913E
S1132FA0CE04E091C504F091C6048091C004099553
S1132FB080E00BC086E009C080E007C080E005C067
S1132FC080E003C080E001C080E00F90DF91CF91EA
S1132FD008958A3010F4805D0895982F9A509630A1
S1132FE010F4895C089580E30895FC01611571056E
S1132FF049F0680F791F80E09191890FE617F70770
S1133000D9F701C080E0819508950F93862FBA0106
S1133010A901F8949AE09093D30427E00E94B61E85
S1133020813041F480E29EE40E94451F813021F406
S113303080E003C083E001C083E078940F91089599
S1133040F89460E081E00E94A41E1092D904789460
S113305080E00E948F1E0895F89460E080E00E9452
S1133060A41E0E94711F78940895EF92FF920F930B
S11330701F93CF93DF937C01EB018A01F894209195
S1133080D7043091D80423303105E0F06091D7049F
S11330907091D80486EA96E00E94F517811114C055
S11330A08091A606F70180838091D7049091D8047B
S11330B00297F8019183808387EA96E09983888355
S11330C080E003C085E001C085E07894DF91CF9172
S11330D01F910F91FF90EF900895F8949091D90467
S11330E0911135C0FB013197F093DC04E093DB04CC
S11330F021E030E03093D5042093D4048083809180
S1133100D4049091D504480F591F5093D50440938B
S1133110D4046091D4047091D504CF010E94F517B2
S11331202091D4043091D504F901EA55F94F8083F4
S11331302F5F3F4F3093D5042093D40481E08093D4
S1133140DA0461E080E00E94A41E80E001C085E012
S113315078940895CF93DF931F92CDB7DEB7CE0155
S113316001960E94F21E8091D904813031F008F456
S11331707DC0823009F08AC059C00E94601F8981D5
S11331808A3341F41092D6041092D8041092D704D2
S113319080E081C08D3029F482E08093D90480E0FE
S11331A07AC0282F20532A3038F0982F9154963023
S11331B010F4275001C02FEF8091D604882321F00A
S11331C0813009F065C01CC08091D7049091D80467
S11331D08F3F910509F070F4E091D704F091D80481
S11331E0EA55F94F2295207F208381E08093D6040D
S11331F080E051C01092D9040E94711F80E04BC03E
S1133200E091D704F091D804EA55F94F8081282B36
S113321020838091D7049091D80401969093D80488
S11332208093D7041092D60480E035C089819091B0
S1133230D304891308C00E94711F1092D90481E03D
S11332400E948F1E28C08A3369F41092D60410920B
S1133250D8041092D70481E08093D9040E94601F9F
S113326080E019C01092D90480E015C089818A33A6
S113327089F40E94601F1092D8041092D70410920F
S1133280D60481E08093D90480E005C080E003C0C7
S113329080E001C080E00F90DF91CF910895CF933B
S11332A08091DA048230C9F038F4882309F471C0BB
S11332B0813009F074C007C0833009F454C08430ED
S11332C009F06DC059C08AE30E94EF1E82E080932A
S11332D0DA041092D604C0E065C08091D4049091C1
S11332E0D504892BC1F18091D604882321F0813043
S11332F009F057C010C0E091DB04F091DC04808138
S113330082958F700E94E9170E94EF1E81E08093DE
S1133310D604C0E047C0E091DB04F091DC04808176
S11333208F700E94E9170E94EF1E8091DB04909138
S1133330DC0401969093DC048093DB041092D604A1
S11333408091D4049091D50401979093D5048093EF
S1133350D404C0E027C08DE00E94EF1E83E0809378
S1133360DA04C0E01FC08091D3040E94EF1E84E001
S11333708093DA04C0E016C01092DA0483E00E945D
S11333808F1EC82F60E081E00E94A41E1092DA0410
S113339009C060E081E00E94A41EC0E003C0C0E058
S11333A001C0C0E08C2FCF9108958091D904815041
S11333B0823010F41092D9040E94711F80E00895A5
S11333C0DC0161157105B1F0680F791F4FEF2FEF24
S11333D08D914827842F90E0FC01EE53FF4F4491D8
S11333E04227FC01EE53FE4FE4912E2FA617B70798
S11333F079F702C04FEFEFEF20E0242B822F9E2FAE
S113340008951F93CF93DF93EB01288139812530F1
S1133410310509F056C0DC011196FC911197129602
S1133420EC91129713965C91139740E014962C91AB
S1133430422B9A01215031092F3C374008F043C0F8
S11334401982188221E0DC012C93288139812F5FB5
S11334503F4F398328839A0127703327232B51F058
S11334609A01369527953695279536952795122FE7
S11334701F5F08C09A01369527953695279536958E
S11334802795122FDC0111961C93288139812F5F17
S11334903F4F398328837F2F60E06E2B6F5F7F4F10
S11334A020E002960E940F16882319F00E947D1EC8
S11334B00BC088819981810F911D9983888380E055
S11334C003C083E001C083E0DF91CF911F91089591
S11334D0CF93DF9300D0CDB7DEB7FB0120813181DC
S11334E02530310519F5FC014181328124812111F6
S11334F01FC08381982F91509E3FE0F01A828F3F26
S113350019F481E0898301C01982742F60E0632B70
S11335106F5F7F4F21E041E050E0CE0101960E94B1
S11335200F16882349F00E947D1E07C083E005C062
S113353083E003C083E001C080E00F900F90DF912F
S1133540CF910895CF93DF93EB0128813981263001
S1133550310508F445C0DC011196FC9111971296CF
S1133560EC91129713965C91139740E014962C916A
S11335701497422B15966C919A0127703327232BAD
S113358051F09A01369527953695279536952795C6
S1133590722F7F5F08C09A01369527953695279537
S11335A036952795722F9A0121503109203B3740D7
S11335B0C8F4761319C03F2F20E02E2BB9016F5F9A
S11335C07F4F21E006960E940F16882319F00E946F
S11335D07D1E0BC085E090E09983888380E005C060
S11335E083E003C083E001C083E0DF91CF910895BD
S11335F01F93CF93DF93EB01288139812530310567
S113360009F055C0DC011196FC9111971296EC91CA
S1133610129713965C91139740E014962C91422BC9
S11336209A01215031092F3C374008F042C01982D9
S1133630188222E0DC012C93288139812F5F3F4FCF
S1133640398328839A0127703327232B51F09A0159
S1133650369527953695279536952795122F1F5F12
S113366008C09A013695279536952795369527955E
S1133670122FDC0111961C93288139812F5F3F4F53
S1133680398328837F2F60E06E2B6F5F7F4F029614
S11336900E941116882319F00E947D1E0BC0888198
S11336A09981810F911D9983888380E003C083E011
S11336B001C083E0DF91CF911F910895FB01208128
S11336C031812530310591F4FC01718160E0228162
S11336D0622B6F5F7F4F21E041E050E003960E9430
S11336E0B815882329F00E947D1E089583E008956B
S11336F080E00895CF93DF93EB0128813981263050
S1133700310580F1DC011196EC91119712967C91B0
S1133710129713965C91139740E014962C9114978A
S1133720422B15966C919A012150310928373105A5
S1133730D8F4242F220F261319C03E2F20E0272B64
S1133740B9016F5F7F4F21E006960E94B815882368
S113375019F00E947D1E0BC085E090E09983888358
S113376080E005C083E003C083E001C083E0DF9113
S1133770CF9108950F931F93CF93DF93EB0128818B
S1133780398125303105F1F5DC011196EC91119761
S113379012965C91129714964C911497042F10E092
S11337A09801215031092D37310570F5198218829D
S11337B023E02C93288139812F5F3F4F398328835D
S11337C0440F11964C93288139812F5F3F4F3983E1
S11337D028837E2F60E0652B6F5F7F4F20E0A80178
S11337E002960E94B815882319F00E947D1E0DC010
S11337F0000F111F88819981080F191F19830883ED
S113380080E003C083E001C083E0DF91CF911F918A
S11338100F910895CF92DF92EF92FF920F931F932F
S1133820CF93DF93EC018B01FB01808191810A9797
S113383008F45DC0C980DA809B8180E02C817C0122
S1133840E22A7D816E814F8138852985C7010197E0
S11338508D37910508F04DC0942F80E0832B00979D
S113386009F449C08A37910508F047C0AC01440FF8
S1133870551F30E04217530709F041C0372F20E0AD
S1133880262BB9016F5F7F4F21E0AC01CE010A9670
S11338900E94B815811135C0F8011182108287E1A8
S11338A08883808191810196918380838E2D880FF6
S11338B08983808191810196918380839C2D80E00E
S11338C08D29BC016F5F7F4F20E0A701CE010296D6
S11338D00E94B815811115C0EE0CFF1CF8018081FF
S11338E091818E0D9F1D9183808380E00CC080E0C8
S11338F00AC083E008C083E006C083E004C083E01C
S113390002C00E947D1EDF91CF911F910F91FF9005
S1133910EF90DF90CF9008950F931F93CF93DF9391
S1133920EB01288139812530310509F042C0DC01E1
S11339301196FC9111971296EC91129713965C9143
S1133940139740E014962C9114978A01022B980146
S1133950215031092C37310570F51982188224E081
S11339602C93288139812F5F3F4F39832883202F5F
S1133970220F11962C93288139812F5F3F4F398371
S113398028837F2F60E06E2B6F5F7F4FA801029624
S11339900E948815882319F00E947D1E0DC0000F17
S11339A0111F88819981080F191F1983088380E0EA
S11339B003C083E001C083E0DF91CF911F910F9199
S11339C008950F931F93CF93DF938B01C091DD0470
S11339D0D091DE049C012F5F3F4F8FED94E04C2F7C
S11339E05D2F682F792F822F932F0E94102F2196FD
S11339F0F801D183C08380E0DF91CF911F910F91B3
S1133A000895CF92DF92EF92FF920F93862F690170
S1133A107A01F89428E0B701A6010E94B61E81300D
S1133A20F9F481E0C8168BE4D806E104F10468F4E3
S1133A30A7019601220F331F441F551F60EA7FE739
S1133A4087E190E00E94AD2E04C023E230E040E024
S1133A5050E0C9010E94451F813021F480E003C079
S1133A6083E001C083E078940F91FF90EF90DF90A2
S1133A70CF900895F8941092030560E081E00E94CD
S1133A80A41E0E94601F78940895F89460E080E07A
S1133A900E94A41E0E94711F78940895EF92FF92D1
S1133AA00F931F93CF93DF937C01EB018A01F8946A
S1133AB02091FF043091000524303105E0F060913D
S1133AC0FF047091000586EA96E00E94E019892BB4
S1133AD0A1F48091A606F70180838091FF04909160
S1133AE000050397F8019183808387EA96E0998320
S1133AF0888380E003C085E001C085E07894DF918D
S1133B00CF911F910F91FF90EF900895F8949091A9
S1133B100305913009F043C0FB013197F09306058A
S1133B20E093050521E030E0309302052093010580
S1133B3080838091010590910205480F591F50938D
S1133B400205409301056091010570910205CF01C2
S1133B500E94E019492F2091010530910205F901D5
S1133B60EA55F94F80832F5F3F4F3093020520932E
S1133B7001058091010590910205FC01EA55F94F78
S1133B8040830196909302058093010581E0809320
S1133B90040561E080E00E94A41E80E001C085E08D
S1133BA078940895CF93DF931F92CDB7DEB7CE01FB
S1133BB001960E94F21E80910305813061F028F085
S1133BC0823009F18330D9F503C00E94601F37C0E9
S1133BD00E94601F34C0109200051092FF0480916F
S1133BE0FF04909100052981FC01EA55F94F2083D7
S1133BF00196909300058093FF0482E0809303056F
S1133C000E94601F1CC08091FF04909100058F3FAB
S1133C10910509F078F48091FF04909100052981C1
S1133C20FC01EA55F94F2083019690930005809397
S1133C30FF0403C083E0809303050E94601F80E0BB
S1133C400F90DF91CF910895CF938091040588233D
S1133C5019F0813099F506C060E081E00E94A41E4D
S1133C60C0E02DC08091010590910205892BD9F007
S1133C70E0910505F091060580810E94EF1E809178
S1133C800505909106050196909306058093050518
S1133C90809101059091020501979093020580930C
S1133CA00105C0E00CC083E00E948F1EC82F60E0B5
S1133CB081E00E94A41E1092040501C0C0E08C2F74
S1133CC0CF910895CF9380910305882319F0823012
S1133CD059F405C080E00E948F1EC82F06C081E001
S1133CE00E948F1EC82F01C0C0E00E94711F81E096
S1133CF0809303058C2FCF910895813051F018F0F3
S1133D00873029F402C080E0089586E0089584E0B5
S1133D10089582E008951092070581E0089591E0E6
S1133D20909307058093080581E008952091070585
S1133D30222341F020910805FC01208310920705FD
S1133D4081E0089580E00895539A882321F08AB190
S1133D5080698AB903C08AB18F768AB9662321F053
S1133D608AB188628AB90895559808950F93CF93BC
S1133D70C22FDB01CA01880F991FAA1FBB1F880F1E
S1133D80991FAA1FBB1F9C01AD01220F331F441FA3
S1133D90551F220F331F441F551F60E074E284EF48
S1133DA090E00E94AD2E215029B9013021F002305B
S1133DB021F080E003C080E301C080E2C73021F03D
S1133DC0C83019F4866001C08460806880BD60E0FA
S1133DD080E00E94A41E81E0CF910F9108958CB9D8
S1133DE081E008952CB1FC01208381E008951F92A5
S1133DF00F920FB60F9211242F933F934F935F931B
S1133E006F937F938F939F93AF93BF93EF93FF939E
S1133E10E0919C06F0919D060995FF91EF91BF9169
S1133E20AF919F918F917F916F915F914F913F914E
S1133E302F910F900FBE0F901F9018951F920F9205
S1133E400FB60F9211242F933F934F935F936F9369
S1133E507F938F939F93AF93BF93EF93FF93E091DF
S1133E60A006F091A1060995FF91EF91BF91AF9142
S1133E709F918F917F916F915F914F913F912F917E
S1133E800F900FBE0F901F9018959C01A9E0BDE301
S1133E900E94EB2E20E23EE440E050E00E94AD2E72
S1133EA030930A052093090515BC85B5887F85BD27
S1133EB089B78F7789BF88B7806888BF81E0089504
S1133EC014BC8091090590910A05892B31F089B7BA
S1133ED0806889BF8091090583BD85B5876085BDEC
S1133EE0089585B5887F85BD89B78F7789BF88B7E1
S1133EF0806888BF089578941F920F920FB60F922E
S1133F0011242F933F934F935F936F937F938F93DA
S1133F109F93AF93BF93EF93FF93E0919E06F0912D
S1133F209F060995FF91EF91BF91AF919F918F915A
S1133F307F916F915F914F913F912F910F900FBEA1
S1133F400F901F901895823031F0833031F081301A
S1133F5029F4C59A0895C69A0895C79A0895823097
S1133F6031F0833031F0813029F4C5980895C69832
S1133F700895C7980895C39A0895C39808958091A1
S1133F80BB059091BC059093EC038093EB03809167
S1133F90BD059091BE059093EE038093ED0380914F
S1133FA0BF059091C0059093F0038093EF03809137
S1133FB0C1059091C2059093F2038093F10380911F
S1133FC0E3059091E4059093F4038093F3038091C7
S1133FD0E5059091E6059093F6038093F5038091AF
S1133FE0E7059091E8059093F8038093F703809197
S1133FF0E9059091EA059093FA038093F90380917F
S1134000EB059091EC059093FC038093FB03809166
S1134010ED059091EE059093FE038093FD0380914E
S11340201F0690912006909300048093FF038091D3
S113403021069091220690930204809301048091BA
S113404023069091240690930404809303048091A2
S1134050250690912606909306048093050480918A
S11340602706909128069093080480930704809172
S1134070290690912A0690930A048093090480915A
S11340807F069091800690930C0480930B0480919A
S113409081069091820690930E0480930D04809182
S11340A03F06909140069093100480930F048091F2
S11340B041069091420690931204809311048091DA
S11340C0070690910806909314048093130480913A
S11340D0090690910A069093160480931504809122
S11340E00B0690910C06909318048093170480910A
S11340F00D0690910E0690931A04809319048091F2
S11341000F069091100690931C0480931B048091D9
S113411011069091120690931E0480931D048091C1
S11341204706909148069093200480931F04809141
S1134130490690914A069093220480932104809129
S11341404B0690914C069093240480932304809111
S11341504D0690914E0690932604809325048091F9
S113416057069091580690932804809327048091D1
S1134170590690915A0690932A04809329048091B9
S11341805B0690915C0690932C0480932B048091A1
S11341905D0690915E0690932E0480932D04809189
S11341A05F06909160069093300480932F04809171
S11341B06106909162069093320480933104809159
S11341C06306909164069093340480933304809141
S11341D06506909166069093360480933504809129
S11341E06706909168069093380480933704809111
S11341F0690690916A0690933A04809339048091F9
S113420073069091740690933C0480933B048091D0
S113421075069091760690933E0480933D048091B8
S11342207706909178069093400480933F048091A0
S1134230790690917A069093420480934104809188
S11342407B0690917C069093440480934304809170
S11342507D0690917E069093460480934504809158
S11342608306909184069093480480934704809138
S113427085069091860690934A0480934904809120
S11342803B0690913C0690934C0480934B048091A0
S11342903D0690913E0690934E0480934D04809188
S11342A0C3059091C4059093500480934F0480916A
S11342B0C5059091C60590935204809351040895C6
S11342C0EF92FF920F931F93CF93DF93CBE0D5E050
S11342D07E010BEB15E0CE018E199F090E94192F68
S11342E06993799389939993C017D107A1F7EBE068
S11342F0F5E0ABEBB1E08081918111969C938E93B4
S11343008281938113969C938E931297349614967C
S1134310E017F10781F7DF91CF911F910F91FF9083
S1134320EF900895AF92BF92CF92DF92EF92FF92F7
S11343300F931F936E157F058007910741F481E069
S11343402A153B054C055D0519F080E001C080E0AD
S11343501F910F91FF90EF90DF90CF90BF90AF909F
S113436008952F923F924F925F926F927F928F9215
S11343709F92AF92BF92CF92DF92EF92FF920F93F0
S11343801F93CF93DF9300D01F92CDB7DEB70F2ECC
S1134390FBEB8F2EF1E09F2EF02D0F2EFBEB2F2E3B
S11343A0F5E03F2EF02D8BE095E09B838A83198204
S11343B0F4014280538060807180EA81FB81A28095
S11343C0B380C12CD12CE080F18000E010E0920198
S11343D040E050E0B30180E090E00E94922181111E
S11343E011C0EA81FB8171826082538242824081E2
S11343F0518162817381CF018B5095400E941F2FA0
S1134400F1E0F9838A819B8104969B838A8394E0FB
S1134410890E911CEA81FB81E215F30549F6F981C5
S1134420FF2379F00E94A50B0E94BB1F2FEF81EEA2
S113443094E0215080409040E1F700C000000E94C9
S1134440BD1F0E9460210F900F900F90DF91CF91BC
S11344501F910F91FF90EF90DF90CF90BF90AF909E
S11344609F908F907F906F905F904F903F902F9090
S11344700895CF93DF93CDB7DEB760970FB6F89466
S1134480DEBF0FBECDBF8091A9019091AA018130FA
S1134490910519F0029779F40CC028E088E190E0C6
S11344A00FB6F894A895809341000FBE2093410065
S11344B0FFCF0E94FD021092AA011092A9018091DF
S11344C0AB019091AC01892B21F082E00E94A31FE3
S11344D003C082E00E94AF1F8091AD019091AE01B4
S11344E0892B21F083E00E94A31F03C083E00E9474
S11344F0AF1FE3E9F1E0848D80FF03C00E94BB1F7E
S113450002C00E94BD1F8091B9019091BA01803808
S11345109E4330F480E89EE39093BA018093B901FE
S1134520E3E9F1E0848984FF35C06091B1017091C1
S1134530B20180E090E00E948E2C69877A878B8795
S11345409C876091B3017091B40180E090E00E9477
S11345508E2C6D877E878F87988B6091B5017091C3
S1134560B60180E090E00E948E2C6D837E838F8361
S113457098876091B7017091B80180E090E00E9443
S11345808E2C69837A838B839C83CE0101960E944F
S1134590131620C08091B3049091B4049093B20197
S11345A08093B1018091B5049091B6049093B401C5
S11345B08093B3018091B1049091B2049093B601B9
S11345C08093B5018091AF049091B0049093B801A9
S11345D08093B70180919701909198019093500630
S11345E080934F068091990190919A01909352067D
S11345F08093510680919B0190919C019093540665
S11346008093530680919D0190919E01909356064C
S11346108093550680919F019091A0019093380654
S1134620809337068091A1019091A20190933A065C
S1134630809339060E94B12160960FB6F894DEBFCC
S11346400FBECDBFDF91CF9108952F923F924F922D
S11346505F926F927F928F929F92AF92BF92CF920E
S1134660DF92EF92FF920F931F93CF93DF9300D0CB
S113467000D0CDB7DEB7209137063091380640918F
S1134680390650913A0660913B0670913C06809140
S11346903D0690913E060E945E2A20910B053091C2
S11346A00C0540910D0550910E050E94A92DC62EB2
S11346B0D72EE82EF92EE3E9F6E0208131814281FC
S11346C053810E942D2B262E372E482E592EEBE88F
S11346D0F6E020813181428153816C2D7D2D8E2D18
S11346E09F2D0E942D2B662E772E882E992E2C2DF1
S11346F03D2D4E2D5F2DE7E8F6E0608171818281CA
S113470093810E942C2BA62EB72E89839A83209105
S11347100F063091100640911106509112066091D7
S113472013057091140580911505909116050E944A
S1134730A92D062F172F8C839B832C2D3D2D4E2DB9
S11347405F2DEFE8F6E060817181828193810E94A0
S11347502C2BFC81EB81202F312F4F2F5E2F0E94B9
S11347602C2BEFE8F6E060837183828393839C8132
S11347708B81202F312F492F582F622D732D842D9B
S1134780952D0E942D2BE3E9F6E0608371838283EB
S113479093839C818B81202F312F492F582F662D95
S11347A0772D882D992D0E942D2BEBE8F6E0608360
S11347B07183828393839C818B81202F312F492F96
S11347C0582FE9811A816A2D7B2D8E2F912F0E94FB
S11347D02C2BE7E8F6E060837183828393830F9048
S11347E00F900F900F90DF91CF911F910F91FF9039
S11347F0EF90DF90CF90BF90AF909F908F907F907D
S11348006F905F904F903F902F9008952F923F921A
S11348104F925F926F927F928F929F92AF92BF92CC
S1134820CF92DF92EF92FF920F931F93CF93DF9378
S1134830CDB7DEB728970FB6F894DEBF0FBECDBF55
S113484020914F06309150064091510650915206E6
S113485060914706709148068091490690914A06F6
S11348600E942C2B209117053091180540911905B1
S113487050911A050E94A92D862E972EA82EB92E86
S11348802091730630917406409175065091760616
S113489060911B0570911C0580911D0590911E056A
S11348A00E94A92DC62ED72EE82EF92EE3E9F6E0B4
S11348B02081318142815381682D792D8A2D9B2D50
S11348C00E942D2B2C2D3D2D4E2D5F2D0E942D2B26
S11348D0262E372E89839A83282D392D4A2D5B2D38
S11348E0EBE8F6E060817181828193810E942C2B38
S11348F02C2D3D2D4E2D5F2D0E942C2B6B837C8304
S11349008D839E83E7E8F6E02081318142815381E3
S1134910682D792D8A2D9B2D0E942D2B2C2D3D2D1C
S11349204E2D5F2D0E942D2B462E572E682E792E4C
S113493020910706309108064091090650910A0615
S113494060911F05709120058091210590912205A9
S11349500E94A92D062F172F88879F83282D392D74
S11349604A2D5B2DEFE8F6E06081718182819381AD
S11349700E942C2B2C2D3D2D4E2D5F2D0E942C2B77
S1134980F885EF81202F312F4F2F5E2F0E942C2B83
S1134990EFE8F6E0608371838283938398858F8147
S11349A0202F312F492F582FF980EA80622D732D43
S11349B08F2D9E2D0E942D2BE3E9F6E060837183F9
S11349C08283938398858F81202F312F492F582FED
S11349D0BB81AC81FD80EE806B2F7A2F8F2D9E2DB5
S11349E00E942C2BEBE8F6E060837183828393832F
S11349F098858F81202F312F492F582F642D752DA5
S1134A00862D972D0E942D2BE7E8F6E060837183B5
S1134A108283938328960FB6F894DEBF0FBECDBF72
S1134A20DF91CF911F910F91FF90EF90DF90CF9086
S1134A30BF90AF909F908F907F906F905F904F90BA
S1134A403F902F9008952F923F924F925F926F92D2
S1134A507F928F929F92AF92BF92CF92DF92EF920A
S1134A60FF920F931F93CF93DF93CDB7DEB72897B1
S1134A700FB6F894DEBF0FBECDBF20915306309120
S1134A805406409155065091560660914B0670911C
S1134A904C0680914D0690914E060E942C2B20913D
S1134AA01705309118054091190550911A050E9477
S1134AB0A92D862E972EA82EB92E209177063091F7
S1134AC078064091790650917A0660911B057091A1
S1134AD01C0580911D0590911E050E94A92DC62ECE
S1134AE0D72EE82EF92E282D392D4A2D5B2DE3E9FA
S1134AF0F6E060817181828193810E942C2B2C2DA0
S1134B003D2D4E2D5F2D0E942C2B262E372E898372
S1134B109A83EBE8F6E02081318142815381682D4C
S1134B20792D8A2D9B2D0E942D2B2C2D3D2D4E2D24
S1134B305F2D0E942D2B6B837C838D839E83E7E8FE
S1134B40F6E02081318142815381682D792D8A2DAF
S1134B509B2D0E942D2B2C2D3D2D4E2D5F2D0E9423
S1134B602D2B462E572E682E792E20910B06309130
S1134B700C0640910D0650910E0660911F05709130
S1134B80200580912105909122050E94A92D062FD0
S1134B90172F88879F83282D392D4A2D5B2DEFE809
S1134BA0F6E060817181828193810E942C2B2C2DEF
S1134BB03D2D4E2D5F2D0E942C2BF885EF81202F4B
S1134BC0312F4F2F5E2F0E942C2BEFE8F6E06083ED
S1134BD071838283938398858F81202F312F492F6E
S1134BE0582FF980EA80622D732D8F2D9E2D0E94FF
S1134BF02C2BE3E9F6E060837183828393839885A9
S1134C008F81202F312F492F582FBB81AC81FD80FC
S1134C10EE806B2F7A2F8F2D9E2D0E942D2BEBE88B
S1134C20F6E0608371838283938398858F81202F3C
S1134C30312F492F582F642D752D862D972D0E94C5
S1134C402D2BE7E8F6E060837183828393832896B3
S1134C500FB6F894DEBF0FBECDBFDF91CF911F9189
S1134C600F91FF90EF90DF90CF90BF90AF909F9007
S1134C708F907F906F905F904F903F902F9008950A
S1134C806091B9017091BA0180E090E00E948E2C8D
S1134C9060938706709388068093890690938A06AA
S1134CA060938B0670938C0680938D0690938E068A
S1134CB060938F067093900680939106909392066A
S1134CC0609393067093940680939506909396064A
S1134CD00E9425230E9406240E94232587E896E04B
S1134CE00E94131608950E94C1030E94BC020E94F0
S1134CF0A60C0E944A13109257061092580610925E
S1134D00590610925A0610925B0610925C06109295
S1134D105D0610925E06109273061092740610924D
S1134D207506109276061092770610927806109205
S1134D30790610927A0680E00895809197068F5F35
S1134D4080939706E3E9F1E0948990FF80C0843072
S1134D5008F491C080919806811170C090C084308D
S1134D6028F080919806882309F477C0E3E9F1E0FC
S1134D70848981FD0E94DA01E3E9F1E0848982FDFE
S1134D800E94E60CE3E9F1E0848983FD0E94C413E8
S1134D90E3E9F1E0848985FF03C081E00E94F61411
S1134DA0E3E9F1E0848986FF03C082E00E94F614FF
S1134DB0E3E9F1E0848985FD03C0848986FF57C057
S1134DC0E3E9F1E08489882324F4848981E00E9462
S1134DD00213E3E9F1E0848988230CF08489E3E990
S1134DE0F1E08489882324F0848980E00E940213FE
S1134DF08FEC86B920919F053091A0054091A105C3
S1134E005091A205609167067091680680916906C9
S1134E1090916A060E94F32B882344F4EFEAF1E0B0
S1134E20808191818260918380832FC0EFEAF1E0D9
S1134E30808191818D7F9183808327C00E945A084D
S1134E400E94AA0310929706109298068FCFE3E966
S1134E50F1E0948990FD83CF89CF0E94DC070E9402
S1134E6093031092970681E0809398067FCF80E0A9
S1134E700E94F614A5CFE3E9F1E0848977CFE3E952
S1134E80F1E0848980FD6DCF71CF80E008954F9269
S1134E905F926F927F928F929F92AF92BF92CF92C6
S1134EA0DF92EF92FF920F931F93CF93DF930F2E16
S1134EB0FBEECF2EF5E0DF2EF02DF6018080918001
S1134EC0A280B38007EE15E0F801608171818281D0
S1134ED09381A50194010E94A02B20E030E044E3DB
S1134EE053E40E94A92D90582BED3FE049E450E48F
S1134EF00E94FA2B60935F067093600680936106AC
S1134F00909362060F2EF3EEEF2EF5E0FF2EF02DB8
S1134F10F7016081718182819381A50194010E94CE
S1134F20A02B20E030E044E353E40E94A92D2BEDB4
S1134F303FE049E450E40E94FA2B609363067093C7
S1134F406406809365069093660680909B0090901B
S1134F509C00A0909D00B0909E00C7E5D6E02091F3
S1134F60130630911406409115065091160660916F
S1134F700706709108068091090690910A060E941E
S1134F802D2B20E030E040E05FE30E94A92DA50135
S1134F9094010E94A92D9B01AC01688179818A81C9
S1134FA09B810E942D2B688379838A839B83CBE525
S1134FB0D6E02091170630911806409119065091B9
S1134FC01A0660910B0670910C0680910D06909163
S1134FD00E060E942D2B20E030E040E05FE30E94AB
S1134FE0A92D9B01AC01C501B4010E94A92D9B010F
S1134FF0AC01688179818A819B810E942D2B688311
S113500079838A839B83CBE7D6E020911B0630917A
S11350101C0640911D0650911E0660910F0670916A
S1135020100680911106909112060E942D2B20E00B
S113503030E040E05FE30E94A92D9B01AC01C50173
S1135040B4010E94A92D288139814A815B810E9483
S11350502D2B262F372F462F572F682F792F488334
S113506059836A837B83622F732F0E94860D688322
S113507079838A839B83F70180819181A281B381A3
S1135080BC01CD019F77F801008111812281338118
S1135090A90198015F770E942D2BF60100811181EF
S11350A022813381A90198015F770E942D2B20E092
S11350B030E040E85FE30E942C2B9F77209153055A
S11350C03091540540915505509156050E94F32B9B
S11350D088230CF052C0C0905F06D0906006E09028
S11350E06106F0906206A7019601609157067091DF
S11350F058068091590690915A060E942C2B9F774E
S113510020915705309158054091590550915A0501
S11351100E94F32B88238CF540906306509064061C
S11351206090650670906606A301920160915B062B
S113513070915C0680915D0690915E060E942C2B16
S11351409F7720915B0530915C0540915D055091FE
S11351505E050E94F32B882384F4C0925706D092F4
S11351605806E0925906F0925A0640925B06509215
S11351705C0660925D0670925E060F2EFBE64F2E73
S1135180F6E05F2EF02D0F2EF7E4CF2EF6E0DF2EA3
S1135190F02DF60180819181A281B381F201808397
S11351A09183A283B383CBE4D6E088819981AA81D9
S11351B0BB8180936F0690937006A0937106B093A1
S11351C072060F2EFBE36F2EF6E07F2EF02DF30117
S11351D080819181A281B381809343069093440698
S11351E0A0934506B0934606E0903B05F0903C053D
S11351F000913D0510913E052091570630915806C7
S11352004091590650915A0660915F06709160066C
S113521080916106909162060E94000CF601608301
S1135220718382839383E0903F05F0904005009161
S113523041051091420520915B0630915C06409136
S11352405D0650915E0660916306709164068091DC
S11352506506909166060E94000C688379838A83B0
S11352609B83E0904305F09044050091450510911F
S1135270460520917B0630917C0640917D06509135
S11352807E0660917F0670918006809181069091E0
S113529082060E94000CF3016083718382839383EE
S11352A0F201C080D180E280F38020E030E044EB62
S11352B052ECC701B6010E949E2D18160CF076C060
S11352C020E030E044EB52E4C701B6010E94F32B26
S11352D088230CF06BC040906F065090700660906D
S11352E071067090720620E030E044EB52ECC3018A
S11352F0B2010E949E2D18160CF058C020E030E038
S113530044EB52E4C301B2010E94F32B88230CF056
S11353104DC0C3E7D6E0209147063091480640913E
S1135320490650914A06C701B6010E942D2B20E080
S113533030E040E05FE30E94A92D9B01AC01C50170
S1135340B4010E94A92D9B01AC01688179818A81F5
S11353509B810E942D2B688379838A839B83C7E773
S1135360D6E020914B0630914C0640914D06509169
S11353704E06C301B2010E942D2B20E030E040E034
S11353805FE30E94A92D9B01AC01C501B4010E94F9
S1135390A92D9B01AC01688179818A819B810E943E
S11353A02D2B688379838A839B8310C010927306A4
S11353B01092740610927506109276061092770673
S11353C0109278061092790610927A06C0907B05A6
S11353D0D0907C05E0907D05F0907E05A7019601B4
S11353E060917306709174068091750690917606AB
S11353F00E949E2D181644F4C0927306D09274062F
S1135400E0927506F0927606209177063091780640
S11354104091790650917A06C701B6010E94F32B98
S1135420882344F4C0927706D0927806E0927906F5
S1135430F0927A06F7FAF094F7F8F094A70196013F
S1135440609173067091740680917506909176064A
S11354500E94F32B882344F4C0927306D0927406FE
S1135460E0927506F09276062091770630917806E0
S11354704091790650917A06C701B6010E949E2D8B
S1135480181644F4C0927706D0927806E092790612
S1135490F0927A06E3E9F1E08489DF91CF911F91DC
S11354A00F91FF90EF90DF90CF90BF90AF909F90BF
S11354B08F907F906F905F904F900895CF92DF927E
S11354C0EF92FF926B017C01CA01B901A701960119
S11354D00E942C2BC62ED72EE82EF92EC701B6011A
S11354E09F7720E030E044E353E40E94F32B8823C9
S11354F014F120E030E0A901C701B6010E949E2DFD
S113550018166CF420E030E044EB53E4C701B60114
S11355100E942C2BC62ED72EE82EF92E0CC020E08C
S113552030E044EB53E4C701B6010E942D2BC62E94
S1135530D72EE82EF92E6C2D7D2D8E2D9F2DFF90CC
S1135540EF90DF90CF90089578941F920F920FB64A
S11355500F9211242F933F934F935F936F937F93F5
S11355608F939F93AF93BF93EF93FF938091920197
S11355708E3160F01092920110929101109290017C
S1135580979A80E58A95F1F797980FC0979880913C
S113559092018F5F8093920180919001909191018B
S11355A001969093910180939001809199068111C5
S11355B010C081E0809399060E949D26E3E9F1E002
S11355C0848984FF0E9440260E94472710929906EE
S11355D003C081E00E94A31F80919A0690919B06CC
S11355E0019690939B0680939A062091990030919E
S11355F09A00A901440F551F4817590728F410921F
S11356009B0610929A0610C02817390768F4E3E93C
S1135610F1E0848D81FF08C0EFEAF1E0808191819F
S113562081609183808307C0EFEAF1E080819181FA
S11356308E7F91838083FF91EF91BF91AF919F9172
S11356408F917F916F915F914F913F912F910F9027
S11356500FBE0F901F9018955058BB27AA270ED045
S113566022C2EBD130F0F0D120F031F49F3F11F49D
S11356701EF4BBC10EF4E095E7FBB1C1E92F35D2AE
S113568080F3BA17620773078407950718F071F45B
S11356909EF54DC20EF4E0950B2EBA2FA02D0B01F2
S11356A0B90190010C01CA01A0011124FF27591B63
S11356B099F0593F50F4503E68F11A16F040A22F69
S11356C0232F342F4427585FF3CF469537952795DA
S11356D0A795F0405395C9F77EF41F16BA0B620BD9
S11356E0730B840BBAF09150A1F0FF0FBB1F661F20
S11356F0771F881FC2F70EC0BA0F621F731F841F63
S113570048F4879577956795B795F7959E3F08F088
S1135710B3CF9395880F08F09927EE0F9795879547
S113572008958BD158F080E891E009F49EEF8CD174
S113573028F040E851E059F45EEF09C056C1F7C1C2
S1135740E92FE078D2D168F3092E052AC1F3261790
S113575037074807590738F00E2E07F8E02569F097
S1135760E025E0640AC0EF6307F8009407FADB0160
S1135770B9019D01DC01CA01AD01EF934AD093D177
S11357800AD05F91552331F02BED3FE049E450FD01
S113579049EC63CF0895DF93DD27B92FBF7740E845
S11357A05FE31616170648075B0710F4D92FCAD112
S11357B09F938F937F936F9377D2E4E5F0E018D1B2
S11357C072D12F913F914F915F91CFD1DD2349F059
S11357D09058A2EA2AED3FE049EC5FE3D0785D27D8
S11357E04DDFDF9160C1D7D008F481E0089534D152
S11357F0E3956AC10CD057C127D140F01ED130F0D7
S113580021F45F3F19F0EBC0511192C1EEC06DD18C
S113581098F39923C9F35523B1F3951B550BBB2773
S1135820AA2762177307840738F09F5F5F4F220F20
S1135830331F441FAA1FA9F333D00E2E3AF0E0E819
S113584030D091505040E695001CCAF729D0FE2F65
S113585027D0660F771F881FBB1F261737074807F7
S1135860AB07B0E809F0BB0B802DBF01FF279358AD
S11358705F4F2AF09E3F510568F0B1C059C15F3FA8
S1135880ECF3983EDCF3869577956795B795F79595
S11358909F5FC9F7880F911D9695879597F908958D
S11358A0E1E0660F771F881FBB1F62177307840729
S11358B0BA0720F0621B730B840BBA0BEE1F88F738
S11358C0E09508951AD188F09F5790F0B92F992741
S11358D0B751A0F0D1F0660F771F881F991F1AF0F7
S11358E0BA95C9F712C0B13081F021D1B1E0089561
S11358F01EC1672F782F8827B85F39F0B93FCCF3E2
S1135900869577956795B395D9F73EF490958095EC
S1135910709561957F4F8F4F9F4F0895E89409C00C
S113592097FB3EF490958095709561957F4F8F4FCE
S11359309F4F9923A9F0F92F96E9BB279395F695E4
S1135940879577956795B795F111F8CFFAF4BB0F62
S113595011F460FF1BC06F5F7F4F8F4F9F4F16C0C6
S1135960882311F096E911C0772321F09EE8872F50
S1135970762F05C0662371F096E8862F70E060E00C
S11359802AF09A95660F771F881FDAF7880F969585
S1135990879597F90895990F0008550FAA0BE0E829
S11359A0FEEF16161706E807F907C0F012161306DD
S11359B0E407F50798F0621B730B840B950B39F41D
S11359C00A2661F0232B242B252B21F408950A2683
S11359D009F4A140A6958FEF811D811D089597F9C3
S11359E09F6780E870E060E008959FEF80EC089581
S11359F0DF93CF931F930F93FF92EF92DF927B017C
S1135A008C01689405C0DA2EEF01AFD0FE01E89452
S1135A10A5912591359145915591AEF3EF012EDE77
S1135A20FE019701A801DA9479F7DF90EF90FF90D7
S1135A300F911F91CF91DF91089500240A941616B7
S1135A40170618060906089500240A941216130668
S1135A50140605060895C9CF50D0E8F3E894E0E0B1
S1135A60BB279F57F0F02AED3FE049EC06C0EE0F4C
S1135A70BB0F661F771F881F28F0B23A62077307AF
S1135A80840728F0B25A620B730B840BE3959A9542
S1135A9072F7803830F49A95BB0F661F771F881F02
S1135AA0D2F7904826C1092E0394000C11F48823E0
S1135AB052F0BB0F40F4BF2B11F460FF04C06F5FC2
S1135AC07F4F8F4F9F4F0895EF93E0FF06C0A2EAE8
S1135AD02AED3FE049EC5FEBD1DDE5DF0F90039465
S1135AE001FC9058E1E8F0E017C157FD9058440FCD
S1135AF0551F59F05F3F71F04795880F97FB991F29
S1135B0061F09F3F79F087950895121613061406E5
S1135B10551FF2CF4695F1DF08C016161706180672
S1135B20991FF1CF86957105610508940895E8944D
S1135B30BB2766277727CB0197F908952CDF08F454
S1135B408FEF08959B01AC0160E070E080E89FE373
S1135B5051CE0BD0A8CF71DF28F076DF18F0952353
S1135B6009F03DCF42CF1124E3CFBFDFA0F3959FCF
S1135B70D1F3950F50E0551F629FF001729FBB2730
S1135B80F00DB11D639FAA27F00DB11DAA1F649FDC
S1135B906627B00DA11D661F829F2227B00DA11D8F
S1135BA0621F739FB00DA11D621F839FA00D611D15
S1135BB0221F749F3327A00D611D231F849F600D36
S1135BC0211D822F762F6A2F11249F5750408AF06F
S1135BD0E1F088234AF0EE0FFF1FBB1F661F771FFB
S1135BE0881F91505040A9F79E3F510570F0F7CEA1
S1135BF09FCF5F3FECF3983EDCF3869577956795EE
S1135C00B795F795E7959F5FC1F7FE2B880F911D18
S1135C109695879597F908959F931EDF0F9007FC3B
S1135C20EE5F52CF11F40EF4E0CE61C066DFD0F324
S1135C309923D9F3CEF39F57550B87FF66D00024E1
S1135C40A0E640EA900180585695979528F4805C28
S1135C50660F771F881F20F026173707480730F490
S1135C60621B730B840B202931294A2BA6951794A8
S1135C700794202531254A2758F7660F771F881F78
S1135C8020F026173707480730F4620B730B840B98
S1135C90200D311D411DA09581F7B901842F915824
S1135CA0880F9695879508959B01AC0152CFDF9399
S1135CB0D92FD2DEE695D7952AED3FE049E45FE39C
S1135CC0B33A6207730784079507D7952AF0A2EAC7
S1135CD049EC9068D3DCE7DEEFE9F0E01DD0DD0F9E
S1135CE00BF030DFDD0F0BF49058DF9108959F3FE8
