:100000000C9450010C94E4080C946D010C946D0157
:100010000C94001B0C946D010C946D010C94781BD6
:100020000C949A1B0C946D010C946D010C949B27FD
:100030000C946D010C94A31A0C947C1A0C946D0111
:100040000C946F010C946D010C946D010C946D0176
:100050000C946D01084AD73B3BCE016E84BCBFFDBA
:10006000C12F3D6C74319ABD56833DDA3D00C77F88
:1000700011BED9E4BB4C3E916BAAAABE0000008021
:100080003F05A84CCDB2D44EB93836A9020C50B9B0
:10009000918688083CA6AAAA2ABE000000803F00DC
:1000A000C1814001C0804101C0804100C181400147
:1000B000C0804100C1814000C1814001C080410138
:1000C000C0804100C1814000C1814001C080410029
:1000D000C1814001C0804101C0804100C181400117
:1000E000C0804100C1814000C1814001C080410009
:1000F000C1814001C0804101C0804100C1814000F8
:10010000C1814001C0804101C0804100C1814001E6
:10011000C0804100C1814000C1814001C0804101D7
:10012000C0804100C1814000C1814001C0804100C8
:10013000C1814001C0804101C0804100C1814000B7
:10014000C1814001C0804101C0804100C1814001A6
:10015000C0804100C1814000C1814001C080410098
:10016000C1814001C0804101C0804100C181400186
:10017000C0804100C1814000C1814001C080410177
:10018000C0804100C1814000C1814001C080410068
:10019000C1814001C0804101C0804100C181400057
:1001A000C0C101C30302C2C60607C705C5C404CC4B
:1001B0000C0DCD0FCFCE0E0ACACB0BC90908C8D87B
:1001C0001819D91BDBDA1A1EDEDF1FDD1D1CDC143B
:1001D000D4D515D71716D6D21213D311D1D010F00B
:1001E0003031F133F3F23236F6F737F53534F43C8B
:1001F000FCFD3DFF3F3EFEFA3A3BFB39F9F838285B
:10020000E8E929EB2B2AEAEE2E2FEF2DEDEC2CE47A
:100210002425E527E7E62622E2E323E12120E0A0EA
:100220006061A163A3A26266A6A767A56564A46CCA
:10023000ACAD6DAF6F6EAEAA6A6BAB69A9A86878FA
:10024000B8B979BB7B7ABABE7E7FBF7DBDBC7CB4BA
:100250007475B577B7B67672B2B373B17170B050CA
:100260009091519353529296565797559594549C0A
:100270005C5D9D5F9F9E5E5A9A9B5B9959589888DA
:100280004849894B8B8A4A4E8E8F4F8D4D4C8C44FA
:10029000848545874746868242438341818040006A
:1002A00011241FBECFE5D8E0DEBFCDBF10E0A0E631
:1002B000B0E0E0E2F8E502C005900D92A03AB10787
:1002C000D9F726E0A0EAB0E001C01D92AB3DB2072D
:1002D000E1F70E942C1F0C940E2C0C9400001F922E
:1002E0000F920FB60F9211242F933F934F935F936A
:1002F0006F937F938F939F93AF93BF93EF93FF93EE
:1003000064B175B180E090E00E9479292DEC3CEC5D
:100310004DE052E40E94942A20E030E040E85AE3A5
:100320000E94942A20919100309192004091930074
:10033000509194000E94182860938503709386035F
:1003400080938703909388038FEC86B9FF91EF9198
:10035000BF91AF919F918F917F916F915F914F91DD
:100360003F912F910F900FBE0F901F9018958FEC1B
:1003700086B910BE17B808952F923F924F925F92A0
:100380006F927F928F929F92AF92BF92CF92DF92A5
:10039000EF92FF920F931F93CF93DF9380E00E9421
:1003A000361086EA83B983E00E94361082E383B96F
:1003B00083E00E94361081E00E94361087EA83B9FC
:1003C00083E00E94361084E00E94361013B184E06E
:1003D0000E94361003B1C5E0D3E0688179818A813B
:1003E0009B81609311037093120380931303909386
:1003F00014030F2EF5E8CF2EF2E0DF2EF02DF601DC
:1004000080809180A280B380E1EDF2E02081318193
:10041000428153810E94E5280F2EF5E56F2EF2E010
:100420007F2EF02DF30120813181428153810E9482
:1004300017281B012C01702F60E0612B882777FDA6
:100440008095982F0E947B2927E137EB41E55BEBF4
:100450000E94942A85017401A20191010E94510811
:10046000F30120813181428153810E941828E1EDFE
:10047000F2E020813181428153810E94942A688375
:1004800079838A839B8384E00E94361013B184E0D1
:100490000E94361003B1C1E0D3E0688179818A817E
:1004A0009B8160930D0370930E0380930F039093D1
:1004B0001003F60180809180A280B380EDECF2E021
:1004C00020813181428153810E94E5280F2EF1E580
:1004D0006F2EF2E07F2EF02DF301208131814281D9
:1004E00053810E9417281B012C01702F60E0612BA3
:1004F000882777FD8095982F0E947B2927E137EB8D
:1005000041E55BEB0E94942A85017401A2019101EF
:100510000E945108F30120813181428153810E9460
:100520001828EDECF2E020813181428153810E9454
:10053000942A688379838A839B8384E00E9436109F
:1005400013B185E00E94361003B182E00E9436109C
:10055000C9E0D3E0688179818A819B81609315032A
:10056000709316038093170390931803F601C080CD
:10057000D180E280F3800F2EF5ED2F2EF2E03F2E9A
:10058000F02DF10120813181428153810E94E528C3
:100590000F2EF9E5AF2EF2E0BF2EF02DF5012081F0
:1005A0003181428153810E9417282B013C01702F19
:1005B00060E0612B882777FD8095982F0E947B292A
:1005C00027E137EB41E55BE30E94942A870176013E
:1005D000A30192010E945108F501208131814281DD
:1005E00053810E941828F101208131814281538179
:1005F0000E94942A688379838A839B8380E0DF91B9
:10060000CF911F910F91FF90EF90DF90CF90BF900F
:10061000AF909F908F907F906F905F904F903F90A2
:100620002F900895CF9380E00E943610C6EAC3B998
:1006300083E00E94361081E383B983E00E94361084
:100640008BE083B983E00E94361082E00E9436106E
:1006500080E00E943610C3B983E00E9436108CE21D
:1006600083B983E00E94361087E083B983E00E945B
:10067000361082E00E94361080E00E943610C3B926
:1006800083E00E9436108DE283B983E00E94361029
:1006900088E083B983E00E94361082E00E94361021
:1006A00080E0CF91089580E00E9436108EEE83B9ED
:1006B00083E00E94361084EF83B983E00E943610F5
:1006C0008EE283B983E00E94361082E00E943610E9
:1006D00080E0089580E00E9436108EEE83B983E0BA
:1006E0000E94361084E383B983E00E94361084EFC1
:1006F00083B983E00E94361082E00E94361080E0C9
:1007000008950F931F93CF93DF9380E00E943610DC
:10071000DEEED3B983E00E9436108AEA83B983E023
:100720000E94361081E00E943610CFEEC3B983E0FC
:100730000E94361084E00E94361003B185E00E94CA
:10074000361013B182E00E943610902F80E0812B8A
:100750009093A9008093A80080E00E943610D3B93E
:1007600083E00E9436108CEA83B983E00E94361041
:1007700081E00E943610C3B983E00E94361084E005
:100780000E94361003B185E00E94361013B182E05A
:100790000E943610902F80E0812B9093AB008093C5
:1007A000AA0080E00E943610D3B983E00E94361080
:1007B0008EEA83B983E00E94361081E00E943610F1
:1007C000C3B983E00E94361084E00E94361003B162
:1007D00085E00E94361013B182E00E943610902FFF
:1007E00080E0812B9093AD008093AC0080E00E946C
:1007F0003610D3B983E00E94361080EB83B983E0D2
:100800000E94361081E00E943610C3B983E00E9436
:10081000361084E00E94361003B185E00E94361045
:1008200013B182E00E943610902F80E0812B9093CC
:10083000AF008093AE0080E00E943610D3B983E011
:100840000E94361082EB83B983E00E94361081E06B
:100850000E943610C3B983E00E94361084E00E94E3
:10086000361003B185E00E94361013B182E00E9479
:100870003610902F80E0812B9093B1008093B000D0
:1008800080E00E943610D3B983E00E94361084EBDA
:1008900083B983E00E94361081E00E943610C3B90C
:1008A00083E00E94361084E00E94361003B185E098
:1008B0000E94361013B182E00E943610902F80E023
:1008C000812B9093B3008093B20080E00E94361099
:1008D000D3B983E00E94361086EB83B983E00E948F
:1008E000361081E00E943610C3B983E00E943610B2
:1008F00084E00E94361003B185E00E94361013B1E7
:1009000082E00E943610902F80E0812B9093B500FA
:100910008093B40080E00E943610D3B983E00E9437
:10092000361088EB83B983E00E94361081E00E9484
:100930003610C3B983E00E94361084E00E9436105E
:1009400003B185E00E94361013B182E00E94361098
:10095000902F80E0812B9093B7008093B60080E0C9
:100960000E943610D3B983E00E9436108AEB83B917
:1009700083E00E94361081E00E943610C3B983E004
:100980000E94361084E00E94361003B185E00E9478
:10099000361013B182E00E943610902F80E0812B38
:1009A0009093B9008093B80080E00E943610D3B9CC
:1009B00083E00E9436108CEB83B983E00E943610EE
:1009C00081E00E943610C3B983E00E94361084E0B3
:1009D0000E94361003B185E00E94361013B182E008
:1009E0000E943610902F80E0812B9093BB00809363
:1009F000BA0080E00E943610D3B983E00E9436101E
:100A00008EEB83B983E00E94361081E00E9436109D
:100A1000C3B983E00E94361084E00E943610D3B13F
:100A200085E00E943610C3B182E00E9436109D2FEF
:100A300080E08C2B9093BD008093BC0080E0DF9120
:100A4000CF911F910F910895CF92DF92EF92FF9275
:100A50000F931F93CF93DF93CDB7DEB7A8970FB651
:100A6000F894DEBF0FBECDBF8091B2009091B3006D
:100A70004091A0005091A1006091A2007091A3004C
:100A80009A01AB01281B390B41095109A091B00013
:100A9000B091B1000E94C22BDC01CB01072E7FE098
:100AA000B595A795979587957A95D1F7702D8983F8
:100AB0009A83AB83BC8309811A812B813C8160912D
:100AC000BA007091BB00CB01AA2797FDA095BA2F61
:100AD000BC01CD01052E5BE0660F771F881F991FB3
:100AE0005A95D1F7502DC090BC00D090BD00EE2497
:100AF000D7FCE094FE2CA90198012C0D3D1D4E1D44
:100B00005F1D0E949A2B2D833E834F835887498116
:100B10005A816B817C818D819E81AF81B885840FE4
:100B2000951FA61FB71F898B9A8BAB8BBC8B8989AE
:100B30009A89AB89BC890896A11DB11DBC01CD0164
:100B4000689413F895958795779567951694D1F7DE
:100B50000E947B292DEC3CEC4CEC5DE30E94942A36
:100B60006093D9027093DA028093DB029093DC02E7
:100B700089899A89AB89BC89805A9F40A109B109AA
:100B80008D8B9E8BAF8BB88F2D893E894F89588D69
:100B90006D897E898F89988DE091B600F091B700BC
:100BA0000E94682B9B01AC01012E1CE055954795D6
:100BB000379527951A95D1F7102DDF010E94CD2B7F
:100BC000DC01CB01072E7BE0B595A795979587951E
:100BD0007A95D1F7702D89839A83AB83BC832D8955
:100BE0003E894F89588DA091AA00B091AB000E9418
:100BF000CD2BDC01CB01072E7BE0B595A795979512
:100C000087957A95D1F7702D8D839E83AF83B887B2
:100C100049815A816B817C818D819E81AF81B885AC
:100C2000840F951FA61FB71F89879A87AB87BC873C
:100C30008091A8009091A900AA2797FDA095BA2FAE
:100C40008D8F9E8FAF8FB8A38D8D9E8DAF8DB8A1E8
:100C500049855A856B857C85880F991FAA1FBB1F04
:100C6000880F991FAA1FBB1F840F951FA61FB71FB0
:100C7000880F991FAA1FBB1F880F991FAA1FBB1F90
:100C8000880F991FAA1FBB1F8D8F9E8FAF8FB8A390
:100C90004D8D5E8D6F8D78A14E5F5F4F6F4F7F4F93
:100CA000DB01CA011AF40396A11DB11DB595A795E4
:100CB00097958795B595A795979587958D879E87E5
:100CC000AF87B88B2D893E894F89588DA091AC0094
:100CD000B091AD000E94CD2BDC01CB01072E7DE051
:100CE000B595A795979587957A95D1F7702D8983B6
:100CF0009A83AB83BC832D893E894F89588D6D893A
:100D00007E898F89988DE091B400F091B5000E94A2
:100D1000682B9B01AC01012E1CE05595479537953A
:100D200027951A95D1F7102DDF010E94CD2BBB27F7
:100D300097FDB095AB2F8D839E83AF83B887498194
:100D40005A816B817C818D819E81AF81B885840FB2
:100D5000951FA61FB71F0296A11DB11DB595A7959A
:100D600097958795B595A7959795879589879A873C
:100D7000AB87BC8789859A85AB85BC859C01AD0115
:100D800030584F4F5F4FA091AE00B091AF000E941E
:100D9000C22BDC01CB01072E7FE0B695A795979576
:100DA00087957A95D1F7702D89A39AA3ABA3BCA39D
:100DB0008D859E85AF85B8894091A4005091A5008E
:100DC0006091A6007091A7009A01AB01281B390B16
:100DD0004A0B5B0BAAE6B8E10E94C22B6DA37EA36F
:100DE0008FA398A78DA19EA1AFA1B8A5BB238CF01E
:100DF0008DA19EA1AFA1B8A529A13AA14BA15CA14B
:100E0000BC01CD01660F771F881F991F0E94782BA8
:100E10000EC06DA17EA18FA198A529A13AA14BA1D9
:100E20005CA10E94782B220F331F441F551F298F6E
:100E30003A8F4B8F5C8F498D5A8D6B8D7C8D898D50
:100E40009A8DAB8DBC8D252F362F472F552747FD0B
:100E50005A95692F7A2F8B2F992787FD9A950E9493
:100E6000682B69837A838B839C8329813A814B81A8
:100E70005C81AEEDBBE00E94C22BBB2797FDB09515
:100E8000AB2F89839A83AB83BC83298D3A8D4B8D9D
:100E90005C8DA3E4B3EE0E94D02BBB2797FDB095E9
:100EA000AB2F8D839E83AF83B88709811A812B81F5
:100EB0003C814D815E816F817885898D9A8DAB8D66
:100EC000BC8D400F511F621F731F4153514F6F4F15
:100ED0007F4F689413F875956795579547951694C5
:100EE000D1F78A019B01080F191F2A1F3B1FC90157
:100EF000B8010E947B292091950030919600409185
:100F00009700509198000E94942A6093DD0270939C
:100F1000DE028093DF029093E002A8960FB6F89469
:100F2000DEBF0FBECDBFDF91CF911F910F91FF901C
:100F3000EF90DF90CF9008950F931F93CF93DF939F
:100F4000CDB7DEB72C970FB6F894DEBF0FBECDBF7E
:100F500080E00E9436108EEE83B983E00E94361046
:100F600086EF83B983E00E94361081E00E9436103C
:100F70008FEE83B983E00E94361084E00E94361021
:100F800083B190E0A0E0B0E08D839E83AF83B8870B
:100F900084E00E94361083B190E0A0E0B0E0898345
:100FA0009A83AB83BC8385E00E94361083B190E0C6
:100FB000A0E0B0E089879A87AB87BC8782E00E9477
:100FC00036100D811E812F81388589819A81AB81F0
:100FD000BC8149855A856B857C859801112700273E
:100FE000BA2FA92F982F8827802B912BA22BB32BB8
:100FF000842B952BA62BB72B689414F8B595A79541
:10100000979587951694D1F78093A4009093A500A7
:10101000A093A600B093A7000E94240580E02C9620
:101020000FB6F894DEBF0FBECDBFDF91CF911F91F9
:101030000F910895CF93DF9380E00E9436108EEEDB
:1010400083B983E00E94361086EF83B983E00E9463
:10105000361081E00E9436108FEE83B983E00E9443
:10106000361084E00E943610D3B185E00E9436101D
:10107000C3B182E00E9436109D2F80E08C2BAA27FE
:1010800097FDA095BA2F8093A0009093A100A09304
:10109000A200B093A3000E94240580E0DF91CF91CD
:1010A00008954F925F926F927F928F929F92AF922C
:1010B000BF92CF92DF92EF92FF920F931F932B017B
:1010C0003C0149015A01C801B701C0909B00D09072
:1010D0009C00E0909D00F0909E00A70196010E9468
:1010E00018289B01AC01C701B6010E94E528C62E55
:1010F000D72EE82EF92E762F272F3D2D4E2D5F2D42
:10110000C301B2010E94942A2B013C012C2D3D2DDC
:101110004E2D5F2D60E070E080E89FE30E9417286D
:10112000A50194010E94942A9B01AC01C301B20164
:101130000E9418281F910F91FF90EF90DF90CF90A1
:10114000BF90AF909F908F907F906F905F904F90E7
:1011500008954F925F926F927F928F929F92AF927B
:10116000BF92CF92DF92EF92FF920F931F934901AC
:101170005A01670178019B01AC01C701B6010E94C9
:10118000942A2B013C01A701960160E070E080E801
:101190009FE30E941728A50194010E94942A9B01B5
:1011A000AC01C301B2010E9418281F910F91FF905A
:1011B000EF90DF90CF90BF90AF909F908F907F90F7
:1011C0006F905F904F9008951F920F920FB60F92FD
:1011D00011244F925F926F927F928F929F92AF9263
:1011E000BF92CF92DF92EF92FF922F933F934F9354
:1011F0005F936F937F938F939F93AF93BF93EF937F
:10120000FF93C0909B00D0909C00E0909D00F090D8
:101210009E0072B66091120170E080E090E00E9442
:101220007B29A70196010E94942A4B015C01672D3E
:1012300070E080E090E00E947B292B013C0120E0DF
:1012400030E040E85BE3C701B6010E94942A9B01AD
:10125000AC01C301B2010E94942A9B01AC01C501FB
:10126000B4010E94182820E030E048E652E40E94D1
:10127000E5286093E1027093E2028093E302909389
:10128000E402FF91EF91BF91AF919F918F917F9178
:101290006F915F914F913F912F91FF90EF90DF9071
:1012A000CF90BF90AF909F908F907F906F905F9006
:1012B0004F900F900FBE0F901F90189583E085BF41
:1012C00080E48BBF0895CF9380E00E943610CCE37A
:1012D000C3B983E00E94361013B883E00E94361031
:1012E00080E783B983E00E94361082E00E943610C6
:1012F00080E00E943610C3B983E00E94361081E07E
:1013000083B983E00E94361080E283B983E00E94B3
:10131000361082E00E94361080E00E943610C3B979
:1013200083E00E94361082E083B983E00E94361089
:1013300080E883B983E00E94361082E00E94361074
:1013400080E0CF910895EF92FF920F931F93CF9378
:10135000DF9380E00E9436108CE383B983E00E9423
:10136000361083E083B90E94361081E00E94361067
:101370008DE383B983E00E94361084E00E9436102A
:10138000E3B084E00E943610F3B084E00E9436108F
:10139000D3B184E00E943610C3B184E00E943610BD
:1013A00003B185E00E94361013B182E00E9436102E
:1013B0007E2D60E06F29882777FD8095982F0E9409
:1013C0007B2920E030E44BEA54E40E94E528209198
:1013D000B1023091B2024091B3025091B4020E9426
:1013E000182860933D0370933E0380933F039093CE
:1013F0004003702F60E0612B882777FD8095982F40
:101400000E947B2920E030E44BEA54E40E94E52866
:101410002091B5023091B6024091B7025091B802C6
:101420000E94182860934103709342038093430302
:10143000909344037D2F60E06C2B882777FD809587
:10144000982F0E947B2920E030E44BEA54E40E946C
:10145000E5282091B9023091BA024091BB02509127
:10146000BC020E9418286093450370934603809342
:1014700047039093480380E0DF91CF911F910F9134
:10148000FF90EF9008950F931F93CF93DF93062F54
:10149000172FD82FC92F20E030E044EB53E40E94EF
:1014A000892A8823B4F020E030E044EB53E4602F35
:1014B000712F8D2F9C2F0E941728062F172FD82FA2
:1014C000C92F20E030E044EB53E40E94892A8823AE
:1014D00054F720E030E0A901602F712F8D2F9C2F51
:1014E0000E94DE288823ACF420E030E044EB53E493
:1014F000602F712F8D2F9C2F0E941828062F172FD9
:10150000D82FC92F20E030E0A9010E94DE288823CF
:101510005CF3602F712F8D2F9C2FDF91CF911F9146
:101520000F9108954F925F926F927F928F929F9248
:10153000AF92BF92CF92DF92EF92FF92CF93DF9361
:10154000CDB7DEB7C056D1090FB6F894DEBF0FBED7
:10155000CDBFC0900103D0900203E0900303F09050
:1015600004038090050390900603A0900703B090B9
:101570000803A7019601C701B6010E94942A2B0116
:101580003C01A5019401C501B4010E94942A9B016C
:10159000AC01C301B2010E9418280E94012B2091C6
:1015A000090330910A0340910B0350910C030E94F0
:1015B000E5280E94B628DC01CB01B0588D879E87B4
:1015C000AF87B88B8D8E9E8EAF8EB8A2F7FAF0944F
:1015D000F7F8F094C9A2DAA2EBA2FCA21DA21EA207
:1015E0001FA218A66D8D7E8D8F8D98A12D8D3E8D9D
:1015F0004F8D58A189A09AA0ABA0BCA049A05AA029
:101600006BA07CA00E94942A6B017C01A301920133
:10161000C501B4010E94942A9B01AC01C701B60127
:101620000E9418280E94012B6B017C016D8D7E8D1C
:101630008F8D98A1A70196010E94E528462F572F6C
:10164000682F792F4D8F5E8F6F8F78A369A17AA154
:101650008BA19CA1A70196010E94E528462F572F38
:10166000682F792F49A35AA36BA37CA380913D03D4
:1016700090913E03A0913F03B0914003898B9A8BD8
:10168000AB8BBC8B8091410390914203A0914303AB
:10169000B09144038D8B9E8BAF8BB88F80914503A7
:1016A00090914603A0914703B0914803898F9A8F88
:1016B000AB8FBC8F6D857E858F8598890E94E228CF
:1016C0004B015C016D857E858F8598890E94E2289B
:1016D0006B017C018D8D9E8DAF8DB8A189A79AA7D6
:1016E000ABA7BCA74D8C5E8C6F8C78A089899A893A
:1016F000AB89BC898DA79EA7AFA7B8AB6D857E854A
:101700008F8598890E94E22869AB7AAB8BAB9CAB42
:101710008D8D9E8DAF8DB8A18DAB9EABAFABB8AFAD
:1017200089A19AA1ABA1BCA189AF9AAFABAFBCAF65
:101730006D857E858F8598890E94F72A21966CAFEA
:101740007DAF8EAF9FAF21978DA19EA1AFA1B8A510
:1017500025968CAF9DAFAEAFBFAF25978D899E8983
:10176000AF89B88D29968CAF9DAFAEAFBFAF29972B
:101770006D857E858F8598890E94E2282D966CAFB5
:101780007DAF8EAF9FAF2D978D8D9E8DAF8DB8A104
:1017900061968CAF9DAFAEAFBFAF61978DA19EA19B
:1017A000AFA1B8A565968CAF9DAFAEAFBFAF659743
:1017B0006D857E858F8598890E94F72A69966CAF22
:1017C0007DAF8EAF9FAF699789A19AA1ABA1BCA154
:1017D0006D968CAF9DAFAEAFBFAF6D97898D9A8D73
:1017E000AB8DBC8DA1968CAF9DAFAEAFBFAFA197B7
:1017F000A701960160E070E080E89FE30E9417284F
:101800006B017C01A301920169A57AA58BA59CA51A
:101810000E94942A9B01AC01C701B6010E94942A40
:101820009B01AC01C501B4010E9418282DA53EA55D
:101830004FA558A90E94942A6B017C0129A93AA9B5
:101840004BA95CA960E070E080E89FE30E94172844
:101850002DA93EA94FA958AD0E94942A29AD3AADB1
:101860004BAD5CAD0E94942A4B015C0125962CADDA
:101870003DAD4EAD5FAD259721966CAD7DAD8EAD86
:101880009FAD21970E94942A9B01AC01C501B40130
:101890000E94172829962CAD3DAD4EAD5FAD29971E
:1018A0000E94942A9B01AC01C701B6010E9418282E
:1018B0006B017C012D962CAD3DAD4EAD5FAD2D97EE
:1018C00060E070E080E89FE30E94172861962CADED
:1018D0003DAD4EAD5FAD61970E94942A65962CADEB
:1018E0003DAD4EAD5FAD65970E94942A4B015C0102
:1018F0006D962CAD3DAD4EAD5FAD6D9769966CADFF
:101900007DAD8EAD9FAD69970E94942A9B01AC017D
:10191000C501B4010E941828A1962CAD3DAD4EAD75
:101920005FADA1970E94942A9B01AC01C701B6014B
:101930000E941828462F572F682F792F49835A83E2
:101940006B837C836D857E858F8598890E94E228D4
:101950006B017C0149A05AA06BA07CA08D8D9E8D4F
:10196000AF8DB8A189A79AA7ABA7BCA76D857E85C7
:101970008F8598890E94F72A4B015C018DA19EA159
:10198000AFA1B8A58DA79EA7AFA7B8AB89899A8943
:10199000AB89BC8989AB9AABABABBCAB6D857E85A3
:1019A0008F8598890E94E2286DAB7EAB8FAB98AF94
:1019B0006D857E858F8598890E94E22869AF7AAF10
:1019C0008BAF9CAF89A19AA1ABA1BCA121968CAF92
:1019D0009DAFAEAFBFAF219789A19AA1ABA1BCA12A
:1019E00025968CAF9DAFAEAFBFAF25978D899E89F1
:1019F000AF89B88D29968CAF9DAFAEAFBFAF299799
:101A00006D857E858F8598890E94E2282D966CAF22
:101A10007DAF8EAF9FAF2D9789A19AA1ABA1BCA13D
:101A200061968CAF9DAFAEAFBFAF61978DA19EA108
:101A3000AFA1B8A565968CAF9DAFAEAFBFAF6597B0
:101A40006D857E858F8598890E94F72A69966CAF8F
:101A50007DAF8EAF9FAF69978D8D9E8DAF8DB8A1F5
:101A60006D968CAF9DAFAEAFBFAF6D97898D9A8DE0
:101A7000AB8DBC8DA1968CAF9DAFAEAFBFAFA19724
:101A8000A701960160E070E080E89FE30E941728BC
:101A9000A30192010E94942A29A53AA54BA55CA511
:101AA0000E94942A6B017C012DA53EA54FA558A943
:101AB000C501B4010E94942A9B01AC01C701B60183
:101AC0000E94182829A93AA94BA95CA90E94942A26
:101AD0006B017C0129AD3AAD4BAD5CAD60E070E0CF
:101AE00080E89FE30E94172821962CAD3DAD4EADB6
:101AF0005FAD21970E94942A25962CAD3DAD4EAD49
:101B00005FAD25970E94942A9B01AC016DA97EA927
:101B10008FA998AD0E94182829962CAD3DAD4EADE9
:101B20005FAD29970E94942A9B01AC01C701B601C1
:101B30000E9418286B017C012D962CAD3DAD4EAD59
:101B40005FAD2D9760E070E080E89FE30E9417286A
:101B500061962CAD3DAD4EAD5FAD61970E94942A6C
:101B600065962CAD3DAD4EAD5FAD65970E94942A54
:101B70004B015C016D962CAD3DAD4EAD5FAD6D97EB
:101B800069966CAD7DAD8EAD9FAD69970E94942A2C
:101B90009B01AC01C501B4010E941728A1962CAD90
:101BA0003DAD4EAD5FADA1970E94942A9B01AC0163
:101BB000C701B6010E941828462F572F682F792F8A
:101BC0004D835E836F8378876D857E858F85988949
:101BD0000E94E2286B017C014DA05EA06FA078A45A
:101BE0008D8D9E8DAF8DB8A189A79AA7ABA7BCA7F5
:101BF0006D857E858F8598890E94F72A4B015C014F
:101C000089A19AA1ABA1BCA18DA79EA7AFA7B8AB94
:101C100089899A89AB89BC8989AB9AABABABBCABE0
:101C20006D857E858F8598890E94E2286DAB7EAB9D
:101C30008FAB98AF8DA19EA1AFA1B8A589AF9AAF88
:101C4000ABAFBCAF89A19AA1ABA1BCA121968CAFCF
:101C50009DAFAEAFBFAF21976D857E858F8598898B
:101C60000E94F72A25966CAF7DAF8EAF9FAF259768
:101C70008D8D9E8DAF8DB8A129968CAF9DAFAEAFE7
:101C8000BFAF29978D899E89AF89B88D2D968CAF6E
:101C90009DAFAEAFBFAF2D976D857E858F8598893F
:101CA0000E94E22861966CAF7DAF8EAF9FAF6197C7
:101CB0006D857E858F8598890E94E22865966CAF38
:101CC0007DAF8EAF9FAF65978DA19EA1AFA1B8A547
:101CD00069968CAF9DAFAEAFBFAF69978DA19EA146
:101CE000AFA1B8A56D968CAF9DAFAEAFBFAF6D97EE
:101CF000898D9A8DAB8DBC8DA1968CAF9DAFAEAF0B
:101D0000BFAFA197A701960160E070E080E89FE374
:101D10000E941728A30192010E94942A29A53AA59E
:101D20004BA55CA50E94942A6B017C012DA53EA5C4
:101D30004FA558A9C501B4010E94942A9B01AC018A
:101D4000C701B6010E94172829A93AA94BA95CA985
:101D50000E94942A6B017C012DA93EA94FA958AD80
:101D600060E070E080E89FE30E94172829AD3AAD5B
:101D70004BAD5CAD0E94942A21962CAD3DAD4EAD8D
:101D80005FAD21970E94942A4B015C0129962CADEE
:101D90003DAD4EAD5FAD299725966CAD7DAD8EAD59
:101DA0009FAD25970E94942A9B01AC01C501B40107
:101DB0000E9418282D962CAD3DAD4EAD5FAD2D97F0
:101DC0000E94942A9B01AC01C701B6010E94182809
:101DD0006B017C0165962CAD3DAD4EAD5FAD659759
:101DE00060E070E080E89FE30E9417284B015C01EF
:101DF0006D962CAD3DAD4EAD5FAD6D9769966CADFA
:101E00007DAD8EAD9FAD69970E94942A9B01AC0178
:101E1000C501B4010E94942A9B01AC0161966CAD8E
:101E20007DAD8EAD9FAD61970E941828A1962CAD17
:101E30003DAD4EAD5FADA1970E94942A9B01AC01D0
:101E4000C701B6010E941828462F572F682F792FF7
:101E500049875A876B877C8729813A814B815C81CE
:101E60006D817E818F8198850E948B28C62ED72E0A
:101E7000E82EF92E20E030E0A9010E94DE28882318
:101E80007CF42BED3FE049EC50E46C2D7D2D8E2D44
:101E90009F2D0E941828C62ED72EE82EF92E1AC084
:101EA0002BED3FE049EC50E46C2D7D2D8E2D9F2DC8
:101EB0000E94892A181674F42BED3FE049EC50E497
:101EC0006C2D7D2D8E2D9F2D0E941728C62ED72E6E
:101ED000E82EF92E20E030E044E353E46C2D7D2D14
:101EE0008E2D9F2D0E94942A2BED3FE049E450E473
:101EF0000E94E52820E030E044EB52E40E941728DD
:101F00002091AD023091AE024091AF025091B002EB
:101F10000E941828862E972EA82EB92EC62ED72EB0
:101F2000E82EF92E20E030E044EB53E40E94892AA9
:101F300088237CF020E030E044EB53E4682D792DD9
:101F40008A2D9B2D0E941728C62ED72EE82EF92EFB
:101F500019C020E030E0A901682D792D8A2D9B2D34
:101F60000E94DE28882374F420E030E044EB53E440
:101F7000682D792D8A2D9B2D0E941828C62ED72ECC
:101F8000E82EF92E4C2D5D2D6E2D7F2D40939D0357
:101F900050939E0360939F037093A0036D857E858D
:101FA0008F85988920E030E044E353E40E94942A2E
:101FB0002BED3FE049E450E40E94E5289F77209113
:101FC000C5023091C6024091C7025091C8020E94DA
:101FD000DE28882364F48C2D9D2DAE2DBF2D80939B
:101FE000990390939A03A0939B03B0939C0380E082
:101FF000C05ADF4F0FB6F894DEBF0FBECDBFDF91E2
:10200000CF91FF90EF90DF90CF90BF90AF909F90D7
:102010008F907F906F905F904F900895CF93C82FCF
:1020200080E00E9436108CE383B983E00E94361072
:1020300013B883E00E943610C13039F018F0C23076
:1020400051F406C088E783B908C089E783B905C0A1
:102050008AE783B902C088E783B983E00E9436101B
:1020600082E00E94361080E0CF910895823051F0D6
:1020700030F0843069F048F0853081F40CC094EA87
:1020800096BF0CC084E986BF0EC084E886BF08C036
:1020900084EC86BF05C084E886BF02C0823019F098
:1020A00006B607FEFDCF81B1887F0895CF9380E00B
:1020B0000E943610C2EDC3B983E00E94361080E260
:1020C00083B983E00E9436108FE483B983E00E94D5
:1020D000361082E00E94361080E00E943610C3B9AC
:1020E00083E00E94361081E283B983E00E943610BB
:1020F00013B883E00E94361082E00E94361080E020
:102100000E943610C3B983E00E94361082E283B980
:1021100083E00E94361013B883E00E94361082E0FC
:102120000E94361080E00E943610C3B983E00E94FE
:10213000361083E283B983E00E94361080E383B9CE
:1021400083E00E94361082E00E94361080E00E94F8
:102150003610C3B983E00E94361084E283B983E06D
:102160000E94361082E083B983E00E94361082E03C
:102170000E94361080E00E943610C3B983E00E94AE
:1021800036108EE283B983E00E94361013B883E0E4
:102190000E94361082E00E94361080E0CF910895B0
:1021A0008F929F92AF92BF92CF92DF92EF92FF9267
:1021B000CF93DF9380E00E943610D2EDD3B983E055
:1021C0000E94361086E283B983E00E94361081E0D7
:1021D0000E943610C3EDC3B983E00E94361085E03B
:1021E0000E943610F3B082E00E9436106F2D7727E0
:1021F00067FD7095872F972F0E947B2960935D0361
:1022000070935E0380935F039093600380E00E946D
:102210003610D3B983E00E94361088EA83B983E090
:102220000E94361081E00E943610C3B983E00E94FC
:10223000361084E00E943610C3B184E00E9436104C
:1022400083B1C0902903D0902A03E0902B03F09033
:102250002C03C0923503D0923603E0923703F092FC
:102260003803782F60E06C2B882777FD8095982FB6
:102270000E947B2929E23CE54FE05CE30E94942A1E
:10228000862E972EA82EB92EA70196010E941728F8
:102290009F7720916D0230916E0240916F025091B4
:1022A00070020E94892A181664F4882D992DAA2D8F
:1022B000BB2D8093290390932A03A0932B03B09303
:1022C0002C0384E00E943610C3B184E00E943610D3
:1022D00083B1C0902503D0902603E0902703F090AF
:1022E0002803C0923103D0923203E0923303F0927C
:1022F0003403782F60E06C2B882777FD8095982F2A
:102300000E947B2929E23CE54FE05CE30E94942A8D
:10231000862E972EA82EB92EA70196010E94172867
:102320009F772091690230916A0240916B0250912F
:102330006C020E94892A181664F4882D992DAA2D02
:10234000BB2D8093250390932603A0932703B0937E
:10235000280384E00E943610C3B185E00E94361045
:1023600083B1C0902D03D0902E03E0902F03F09006
:102370003003C0923903D0923A03E0923B03F092CB
:102380003C03782F60E06C2B882777FD8095982F91
:102390000E947B294B015C0129E23CE54FE05CE3B4
:1023A0000E94942AA70196010E9417289F772091E6
:1023B00071023091720240917302509174020E9436
:1023C000892A181684F429E23CE54FE05CEBC5014C
:1023D000B4010E94942A60932D0370932E0380937E
:1023E0002F039093300382E00E94361080E0DF914B
:1023F000CF91FF90EF90DF90CF90BF90AF909F90E4
:102400008F900895CF93C82F80E00E94361082ED00
:1024100083B983E00E94361083E283B983E00E948F
:102420003610C13039F018F0C23051F406C080E8DF
:1024300083B908C082E883B905C086E883B902C0C1
:1024400080E883B983E00E94361082E00E94361053
:1024500080E0CF910895EF920F931F93CF93DF9376
:10246000C82F862F642FA9019801982F9150973F6C
:1024700008F07BC08093BE00CC2321F0C13009F06E
:1024800067C033C0EFEBF8E1F093C000E093BF000A
:10249000EAECF8E1F093C200E093C100EBE0F9E16F
:1024A000F093C400E093C300E3EDF8E1F093C600BD
:1024B000E093C5001092C8001092C700E7E5F9E16B
:1024C000F0931801E0931701E9EAF9E1F0931401A0
:1024D000E0931301E7EEF9E1F0931601E0931501A3
:1024E0000E2D0E948618D82F34C0E5EAF3E1F09350
:1024F000C000E093BF00E1EBF3E1F093C200E09392
:10250000C100E2EFF3E1F093C400E093C300EAEB13
:10251000F3E1F093C600E093C5001092C80010925A
:10252000C700EFE2F4E1F0931801E0931701E4ED46
:10253000F4E1F0931401E0931301EAE5F5E1F0937F
:102540001601E09315010E2D0E948A13D82F01C0A9
:10255000D2E0D1110DC00E94101A882341F0C0931F
:10256000C90081E08093600003C0D2E001C0D3E0E5
:102570008D2FDF91CF911F910F91EF900895809152
:102580006000813049F4E091BF00F091C0000995EE
:102590001092600080E0089586E00895CF93DF9365
:1025A0001F92CDB7DEB780916000811188C0CE0147
:1025B00001960E941B1A813009F083C08981813005
:1025C00021F0823009F07FC01AC0E091C500F0917F
:1025D000C6004DEC50E06BEC70E08AEC90E00995A1
:1025E000811173C08091CA009091BE00891711F0CB
:1025F00081116DC082E00E94141A80E06BC0A0912E
:10260000CB00B091CC009C919093CF0081E080935F
:10261000D00080916100882331F1981751F0E4E6F1
:10262000F0E021E030E080818823E9F0981315C0C4
:1026300002C020E030E0F901EE0FFF1F2E0F3F1F18
:10264000F901EF59FF4F0180F281E02D6DEC70E050
:10265000CD0109958093D00006C02F5F3F4F339680
:102660002031310501F78091CA00882391F18091D2
:10267000D000882399F0E091CB00F091CC009091AC
:10268000CF0090689083E091CB00F091CC008183E3
:1026900082E090E09093CE008093CD004091CD00F9
:1026A0005091CE006091CB007091CC00E091C300BE
:1026B000F091C4008091BE00099580E00BC086E0D7
:1026C00009C080E007C080E005C080E003C080E072
:1026D00001C080E00F90DF91CF9108958A3010F40F
:1026E000805D0895982F9A50963010F4895C089573
:1026F00080E30895FC016115710549F0680F791FA9
:1027000080E09191890FE617F707D9F701C080E0C3
:10271000819508950F93862FBA01A901F8949AE044
:102720009093D10027E00E943B1A813041F480E26F
:102730009EE40E94CA1A813021F480E003C083E045
:1027400001C083E078940F910895F89460E081E0EF
:102750000E94291A1092D700789480E00E94141ADF
:102760000895F89460E080E00E94291A0E94F61A09
:1027700078940895EF92FF920F931F93CF93DF9376
:102780007C01EB018A01F8942091D5003091D600AC
:1027900023303105E0F06091D5007091D6008DE1D5
:1027A00091E00E947A13811114C080911D01F701FC
:1027B00080838091D5009091D6000297F801918393
:1027C00080838EE191E09983888380E003C085E077
:1027D00001C085E07894DF91CF911F910F91FF9018
:1027E000EF900895F8949091D700911135C0FB01B6
:1027F0003197F093DA00E093D90021E030E0309394
:10280000D3002093D20080838091D2009091D30096
:10281000480F591F5093D3004093D2006091D200CB
:102820007091D300CF010E947A132091D200309191
:10283000D300F901E35EFE4F80832F5F3F4F30935B
:10284000D3002093D20081E08093D80061E080E043
:102850000E94291A80E001C085E078940895CF9302
:10286000DF931F92CDB7DEB7CE0101960E94771A93
:102870008091D700813031F008F47DC0823009F0BA
:102880008AC059C00E94E51A89818A3341F41092A6
:10289000D4001092D6001092D50080E081C08D3017
:1028A00029F482E08093D70080E07AC0282F20535B
:1028B0002A3038F0982F9154963010F4275001C0E8
:1028C0002FEF8091D400882321F0813009F065C07A
:1028D0001CC08091D5009091D6008F3F910509F0E2
:1028E00070F4E091D500F091D600E35EFE4F2295A2
:1028F000207F208381E08093D40080E051C010923B
:10290000D7000E94F61A80E04BC0E091D500F0910C
:10291000D600E35EFE4F8081282B20838091D50076
:102920009091D60001969093D6008093D500109296
:10293000D40080E035C089819091D100891308C00E
:102940000E94F61A1092D70081E00E94141A28C043
:102950008A3369F41092D4001092D6001092D500F8
:1029600081E08093D7000E94E51A80E019C01092A0
:10297000D70080E015C089818A3389F40E94E51A66
:102980001092D6001092D5001092D40081E080936E
:10299000D70080E005C080E003C080E001C080E097
:1029A0000F90DF91CF910895CF938091D80082301E
:1029B000C9F038F4882309F471C0813009F074C07B
:1029C00007C0833009F454C0843009F06DC059C089
:1029D0008AE30E94741A82E08093D8001092D40097
:1029E000C0E065C08091D2009091D300892BC1F1E5
:1029F0008091D400882321F0813009F057C010C0A5
:102A0000E091D900F091DA00808182958F700E9468
:102A10006E130E94741A81E08093D400C0E047C016
:102A2000E091D900F091DA0080818F700E946E13DE
:102A30000E94741A8091D9009091DA0001969093C7
:102A4000DA008093D9001092D4008091D200909146
:102A5000D30001979093D3008093D200C0E027C0A9
:102A60008DE00E94741A83E08093D800C0E01FC0FC
:102A70008091D1000E94741A84E08093D800C0E055
:102A800016C01092D80083E00E94141AC82F60E08C
:102A900081E00E94291A1092D80009C060E081E00C
:102AA0000E94291AC0E003C0C0E001C0C0E08C2F22
:102AB000CF9108958091D7008150823010F4109208
:102AC000D7000E94F61A80E00895DC0161157105B7
:102AD000B1F0680F791F4FEF2FEF8D914827842FAA
:102AE00090E0FC01E156FF4F44914227FC01E15682
:102AF000FE4FE4912E2FA617B70779F702C04FEFCC
:102B0000EFEF20E0242B822F9E2F08951F93CF9369
:102B1000DF93EB01288139812530310509F056C05A
:102B2000DC011196FC9111971296EC911297139675
:102B30005C91139740E014962C91422B9A012150FE
:102B400031092F3C374008F043C01982188221E038
:102B5000DC012C93288139812F5F3F4F39832883F3
:102B60009A0127703327232B51F09A013695279528
:102B70003695279536952795122F1F5F08C09A0125
:102B8000369527953695279536952795122FDC0192
:102B900011961C93288139812F5F3F4F39832883F9
:102BA0007F2F60E06E2B6F5F7F4F20E002960E94C8
:102BB0001A20882319F00E94021A0BC0888199817B
:102BC000810F911D9983888380E003C083E001C059
:102BD00083E0DF91CF911F910895CF93DF9300D0D1
:102BE000CDB7DEB7FB01208131812530310519F5E4
:102BF000FC0141813281248121111FC08381982FE2
:102C000091509E3FE0F01A828F3F19F481E0898352
:102C100001C01982742F60E0632B6F5F7F4F21E04A
:102C200041E050E0CE0101960E941A20882349F02D
:102C30000E94021A07C083E005C083E003C083E05E
:102C400001C080E00F900F90DF91CF910895CF9356
:102C5000DF93EB01288139812630310508F445C026
:102C6000DC011196FC9111971296EC911297139634
:102C70005C91139740E014962C911497422B159673
:102C80006C919A0127703327232B51F09A013695C6
:102C900027953695279536952795722F7F5F08C023
:102CA0009A01369527953695279536952795722F53
:102CB0009A0121503109203B3740C8F4761319C0DE
:102CC0003F2F20E02E2BB9016F5F7F4F21E006964A
:102CD0000E941A20882319F00E94021A0BC085E076
:102CE00090E09983888380E005C083E003C083E09F
:102CF00001C083E0DF91CF9108951F93CF93DF93BD
:102D0000EB01288139812530310509F055C0DC01FE
:102D10001196FC9111971296EC91129713965C9173
:102D2000139740E014962C91422B9A0121503109BF
:102D30002F3C374008F042C01982188222E0DC01A3
:102D40002C93288139812F5F3F4F398328839A0143
:102D500027703327232B51F09A0136952795369506
:102D6000279536952795122F1F5F08C09A01369533
:102D700027953695279536952795122FDC011196C4
:102D80001C93288139812F5F3F4F398328837F2F00
:102D900060E06E2B6F5F7F4F02960E941C2088239D
:102DA00019F00E94021A0BC088819981810F911D30
:102DB0009983888380E003C083E001C083E0DF91D2
:102DC000CF911F910895FB0120813181253031057C
:102DD00091F4FC01718160E02281622B6F5F7F4F73
:102DE00021E041E050E003960E94C31F882329F0B0
:102DF0000E94021A089583E0089580E00895CF9319
:102E0000DF93EB01288139812630310580F1DC0127
:102E10001196EC91119712967C91129713965C91F2
:102E2000139740E014962C911497422B15966C91B1
:102E30009A012150310928373105D8F4242F220F67
:102E4000261319C03E2F20E0272BB9016F5F7F4F5B
:102E500021E006960E94C31F882319F00E94021ADF
:102E60000BC085E090E09983888380E005C083E013
:102E700003C083E001C083E0DF91CF9108950F93F9
:102E80001F93CF93DF93EB012881398125303105E2
:102E9000F1F5DC011196EC91119712965C91129765
:102EA00014964C911497042F10E098012150310989
:102EB0002D37310570F51982188223E02C93288173
:102EC00039812F5F3F4F39832883440F11964C93EC
:102ED000288139812F5F3F4F398328837E2F60E01F
:102EE000652B6F5F7F4F20E0A80102960E94C31FF1
:102EF000882319F00E94021A0DC0000F111F88814B
:102F00009981080F191F1983088380E003C083E0AB
:102F100001C083E0DF91CF911F910F910895CF926F
:102F2000DF92EF92FF920F931F93CF93DF93EC0109
:102F30008B01FB01808191810A9708F45DC0C980F3
:102F4000DA809B8180E02C817C01E22A7D816E8188
:102F50004F8138852985C70101978D37910508F084
:102F60004DC0942F80E0832B009709F449C08A3725
:102F7000910508F047C0AC01440F551F30E04217DF
:102F8000530709F041C0372F20E0262BB9016F5FAE
:102F90007F4F21E0AC01CE010A960E94C31F811130
:102FA00035C0F8011182108287E188838081918188
:102FB0000196918380838E2D880F898380819181F2
:102FC0000196918380839C2D80E08D29BC016F5FE9
:102FD0007F4F20E0A701CE0102960E94C31F8111FE
:102FE00015C0EE0CFF1CF801808191818E0D9F1D94
:102FF0009183808380E00CC080E00AC083E008C039
:1030000083E006C083E004C083E002C00E94021A8D
:10301000DF91CF911F910F91FF90EF90DF90CF90B4
:1030200008950F931F93CF93DF93EB01288139818C
:103030002530310509F042C0DC011196FC91119751
:103040001296EC91129713965C91139740E01496A8
:103050002C9114978A01022B9801215031092C37A9
:10306000310570F51982188224E02C93288139816A
:103070002F5F3F4F39832883202F220F11962C93E7
:10308000288139812F5F3F4F398328837F2F60E06C
:103090006E2B6F5F7F4FA80102960E94931F8823BB
:1030A00019F00E94021A0DC0000F111F888199812A
:1030B000080F191F1983088380E003C083E001C053
:1030C00083E0DF91CF911F910F9108950F931F938C
:1030D000CF93DF938B01C091DB00D091DC009C018A
:1030E0002F5F3F4F8DED90E04C2F5D2F682F792F94
:1030F000822F932F0E94D52B2196F801D183C08374
:1031000080E0DF91CF911F910F910895CF92DF92D0
:10311000EF92FF920F93862F69017A01F89428E0CD
:10312000B701A6010E943B1A8130F9F481E0C8166C
:103130008BE4D806E104F10468F4A7019601220F9C
:10314000331F441F551F60EA7FE787E190E00E942C
:10315000782B04C023E230E040E050E0C9010E9437
:10316000CA1A813021F480E003C083E001C083E00B
:1031700078940F91FF90EF90DF90CF900895F8949E
:103180001092010160E081E00E94291A0E94E51A74
:1031900078940895F89460E080E00E94291A0E94D3
:1031A000F61A78940895EF92FF920F931F93CF939E
:1031B000DF937C01EB018A01F8942091FD003091AE
:1031C000FE0024303105E0F06091FD007091FE00BA
:1031D0008DE191E00E946515892BA1F480911D017C
:1031E000F70180838091FD009091FE000397F80124
:1031F000918380838EE191E09983888380E003C08E
:1032000085E001C085E07894DF91CF911F910F9107
:10321000FF90EF900895F89490910101913009F09A
:1032200043C0FB013197F0930401E093030121E0D7
:1032300030E0309300012093FF0080838091FF00F5
:1032400090910001480F591F509300014093FF00D7
:103250006091FF0070910001CF010E946515492F18
:103260002091FF0030910001F901E35EFE4F808361
:103270002F5F3F4F309300012093FF008091FF00AC
:1032800090910001FC01E35EFE4F40830196909314
:1032900000018093FF0081E08093020161E080E003
:1032A0000E94291A80E001C085E078940895CF93A8
:1032B000DF931F92CDB7DEB7CE0101960E94771A39
:1032C00080910101813061F028F0823009F1833072
:1032D000D9F503C00E94E51A37C00E94E51A34C030
:1032E0001092FE001092FD008091FD009091FE0072
:1032F0002981FC01E35EFE4F208301969093FE003E
:103300008093FD0082E0809301010E94E51A1CC0B9
:103310008091FD009091FE008F3F910509F078F4B7
:103320008091FD009091FE002981FC01E35EFE4F3B
:10333000208301969093FE008093FD0003C083E0FC
:10334000809301010E94E51A80E00F90DF91CF91F8
:103350000895CF9380910201882319F0813099F567
:1033600006C060E081E00E94291AC0E02DC0809173
:10337000FF0090910001892BD9F0E0910301F091B9
:10338000040180810E94741A8091030190910401CC
:10339000019690930401809303018091FF00909126
:1033A00000010197909300018093FF00C0E00CC0E2
:1033B00083E00E94141AC82F60E081E00E94291A5D
:1033C0001092020101C0C0E08C2FCF910895CF93DD
:1033D00080910101882319F0823059F405C080E002
:1033E0000E94141AC82F06C081E00E94141AC82F28
:1033F00001C0C0E00E94F61A81E0809301018C2F89
:10340000CF910895813051F018F0873029F402C02F
:1034100080E0089586E0089584E0089582E00895AC
:103420001092050181E0089591E090930501809349
:10343000060181E0089520910501222341F02091A9
:103440000601FC0120831092050181E0089580E0CF
:103450000895539A882321F08AB180698AB903C0FC
:103460008AB18F768AB9662321F08AB188628AB9D7
:103470000895559808950F93CF93C22FDB01CA0189
:10348000880F991FAA1FBB1F880F991FAA1FBB1F58
:103490009C01AD01220F331F441F551F220F331F04
:1034A000441F551F60E074E284EF90E00E94782B87
:1034B000215029B9013021F0023021F080E003C011
:1034C00080E301C080E2C73021F0C83019F4866083
:1034D00001C08460806880BD60E080E00E94291A9D
:1034E00081E0CF910F9108958CB981E008952CB1BE
:1034F000FC01208381E008951F920F920FB60F9276
:1035000011242F933F934F935F936F937F938F93E8
:103510009F93AF93BF93EF93FF93E0911301F091CB
:1035200014010995FF91EF91BF91AF919F918F91F8
:103530007F916F915F914F913F912F910F900FBEAF
:103540000F901F9018951F920F920FB60F92112493
:103550002F933F934F935F936F937F938F939F939B
:10356000AF93BF93EF93FF93E0911701F091180190
:103570000995FF91EF91BF91AF919F918F917F91AD
:103580006F915F914F913F912F910F900FBE0F90D0
:103590001F9018959C01A9E0BDE30E94B62B20E284
:1035A0003EE440E050E00E94782B309308012093E5
:1035B000070115BC85B5887F85BD89B78F7789BF21
:1035C00088B7806888BF81E0089514BC80910701A6
:1035D00090910801892B31F089B7806889BF80916B
:1035E000070183BD85B5876085BD089585B5887F52
:1035F00085BD89B78F7789BF88B7806888BF0895F0
:1036000078941F920F920FB60F9211242F933F932D
:103610004F935F936F937F938F939F93AF93BF93DA
:10362000EF93FF93E0911501F09116010995FF9139
:10363000EF91BF91AF919F918F917F916F915F912A
:103640004F913F912F910F900FBE0F901F901895A3
:10365000CF92DF92EF92FF920F931F93CF93DF935E
:10366000082F192FC0E0D0E00F2EC12CFDE7DF2E70
:10367000F02D0F2EF0E8EF2EFEE3FF2EF02DF801D7
:1036800061917191819191918F010E944D29CB019E
:1036900081589E438F379E4340F4FE01EE0FFF1F7B
:1036A000E35EFD4F7183608316C060382EE37207BE
:1036B00040F4FE01EE0FFF1FE35EFD4FF182E0825A
:1036C0000AC061307D4738F0FE01EE0FFF1FE35E58
:1036D000FD4FD182C0822196C430D10581F6DF91A1
:1036E000CF911F910F91FF90EF90DF90CF900895B1
:1036F0001F920F920FB60F9211248F939F93EF9307
:10370000FF93E0910901E83050F4F0E0EE0FFF1F65
:10371000E35EFD4F8081918199BD88BD02C019BCD7
:1037200018BCFF91EF919F918F910F900FBE0F905A
:103730001F90189578941F920F920FB60F92112434
:103740008F939F9380910901883020F498B3987FDC
:10375000892B88BB80910901893018F010920901EA
:1037600003C08F5F809309019F918F910F900FBECF
:103770000F901F901895823031F0833031F08130F6
:1037800029F4C59A0895C69A0895C79A0895823073
:1037900031F0833031F0813029F4C5980895C6980E
:1037A0000895C7980895C39A0895C398089580917D
:1037B000D9029091DA029093B0038093AF03809185
:1037C000DB029091DC029093B2038093B10380916D
:1037D000DD029091DE029093B4038093B303809155
:1037E000DF029091E0029093B6038093B50380913D
:1037F0000103909102039093B8038093B7038091E3
:103800000303909104039093BA038093B9038091CA
:103810000503909106039093BC038093BB038091B2
:103820000703909108039093BE038093BD0380919A
:10383000090390910A039093C0038093BF03809182
:103840000B0390910C039093C2038093C10380916A
:103850003D0390913E039093C4038093C3038091F2
:103860003F03909140039093C6038093C5038091DA
:103870004103909142039093C8038093C7038091C2
:103880004303909144039093CA038093C9038091AA
:103890004503909146039093CC038093CB03809192
:1038A0004703909148039093CE038093CD0380917A
:1038B0009D0390919E039093D0038093CF038091BA
:1038C0009F039091A0039093D2038093D1038091A2
:1038D0005D0390915E039093D4038093D303809112
:1038E0005F03909160039093D6038093D5038091FA
:1038F0002503909126039093D8038093D70380915A
:103900002703909128039093DA038093D903809141
:10391000290390912A039093DC038093DB03809129
:103920002B0390912C039093DE038093DD03809111
:103930002D0390912E039093E0038093DF038091F9
:103940002F03909130039093E2038093E1038091E1
:103950006503909166039093E4038093E303809161
:103960006703909168039093E6038093E503809149
:10397000690390916A039093E8038093E703809131
:103980006B0390916C039093EA038093E903809119
:103990007503909176039093EC038093EB038091F1
:1039A0007703909178039093EE038093ED038091D9
:1039B000790390917A039093F0038093EF038091C1
:1039C0007B0390917C039093F2038093F1038091A9
:1039D0007D0390917E039093F4038093F303809191
:1039E0007F03909180039093F6038093F503809179
:1039F0008103909182039093F8038093F703809161
:103A00008303909184039093FA038093F903809148
:103A10008503909186039093FC038093FB03809130
:103A20008703909188039093FE038093FD03809118
:103A3000910390919203909300048093FF038091EF
:103A400093039091940390930204809301048091D6
:103A500095039091960390930404809303048091BE
:103A600097039091980390930604809305048091A6
:103A7000990390919A03909308048093070480918E
:103A80009B0390919C0390930A0480930904809176
:103A9000A1039091A20390930C0480930B04809156
:103AA000A3039091A40390930E0480930D0480913E
:103AB000590390915A039093100480930F048091BE
:103AC0005B0390915C0390931204809311048091A6
:103AD000E1029091E2029093140480931304809188
:103AE000E3029091E40290931604809315040895E4
:103AF000EF92FF920F931F93CF93DF93CDE2D2E02B
:103B00007E0109ED12E0CE018E199F090E94DE2B85
:103B10006993799389939993C017D107A1F7EDE23F
:103B2000F2E0ADE9B4E08081918111969C938E938F
:103B30008281938113969C938E9312973496149658
:103B4000E017F10781F7DF91CF911F910F91FF905F
:103B5000EF900895AF92BF92CF92DF92EF92FF92D3
:103B60000F931F936E157F058007910741F481E045
:103B70002A153B054C055D0519F080E001C080E089
:103B80001F910F91FF90EF90DF90CF90BF90AF907B
:103B900008952F923F924F925F926F927F928F92F1
:103BA0009F92AF92BF92CF92DF92EF92FF920F93CC
:103BB0001F93CF93DF9300D01F92CDB7DEB70F2EA8
:103BC000FDE98F2EF4E09F2EF02D0F2EF9ED2F2E14
:103BD000F2E03F2EF02D8DE292E09B838A831982E2
:103BE000F4014280538060807180EA81FB81A28071
:103BF000B380C12CD12CE080F18000E010E0920174
:103C000040E050E0B30180E090E00E94AA1D8111E5
:103C100011C0EA81FB8171826082538242824081BD
:103C2000518162817381CF018D5292400E94E42BB9
:103C3000F1E0F9838A819B8104969B838A8394E0D7
:103C4000890E911CEA81FB81E215F30549F6F981A1
:103C5000FF2369F00E94D31B2FEF81EE94E02150E7
:103C600080409040E1F700C000000E94D51B0E94F8
:103C7000781D0F900F900F90DF91CF911F910F91B2
:103C8000FF90EF90DF90CF90BF90AF909F908F907C
:103C90007F906F905F904F903F902F900895CF93BB
:103CA000DF93CDB7DEB760970FB6F894DEBF0FBED7
:103CB000CDBF80918B0490918C04892B21F081E001
:103CC0000E94BB1B03C081E00E94C71B80918D0432
:103CD00090918E04892B21F082E00E94BB1B03C0CF
:103CE00082E00E94C71B80918F0490919004892BE1
:103CF00021F083E00E94BB1B03C083E00E94C71B2E
:103D0000E5E7F4E0848D80FF03C00E94D31B02C06E
:103D10000E94D51B80919B0490919C0480389E4307
:103D200030F480E89EE390939C0480939B04E5E745
:103D3000F4E0848984FF35C0609193047091940409
:103D400080E090E00E94792969877A878B879C8739
:103D5000609195047091960480E090E00E9479292A
:103D60006D877E878F87988B6091970470919804F8
:103D700080E090E00E9479296D837E838F8398870D
:103D80006091990470919A0480E090E00E947929F2
:103D900069837A838B839C83CE0101960E94281BC2
:103DA00020C08091210290912202909394048093EC
:103DB000930480912302909124029093960480931F
:103DC000950480911F029091200290939804809313
:103DD000970480911D0290911E0290939A04809303
:103DE00099048091790490917A0490936E03809362
:103DF0006D0380917B0490917C0490937003809379
:103E00006F0380917D0490917E0490937203809360
:103E1000710380917F049091800490937403809348
:103E20007303809181049091820490935603809350
:103E30005503809183049091840490935803809358
:103E400057030E94C91D60960FB6F894DEBF0FBEDF
:103E5000CDBFDF91CF9108952FEF31EE84E0215057
:103E600030408040E1F700C000008FEF87BB87E063
:103E700084BB80E981BB81E088BB24E022BB80E871
:103E80009EE390931E0280931D02909320028093E4
:103E90001F02909322028093210290932402809328
:103EA0002302909326028093250290932802809308
:103EB000270290932A028093290290932C028093E8
:103EC0002B0211B83CE030B935E33A95F1F7000028
:103ED00023BF20E03DE73BBD2ABD23E22FBD29E102
:103EE0002EBD29E529BF99BD88BD0E94B7010E945A
:103EF0005E097894E12C00E011EE20E030E040E033
:103F000061E080E00E942B120E94BF120E946C238D
:103F10000E94781D0E94D71B0E944F1E0E94CE1245
:103F20000E94920AF7CFCF93DF93FC01683E23E013
:103F3000720708F1CA01860F971F8C349440E8F489
:103F400041155105E1F0DB01AA0FBB1FA352B4409C
:103F5000CA01880F991F8E0F9F1FED0111962C919A
:103F60001197208312962881218332968E179F07FE
:103F7000A1F780E005C081E003C081E001C080E0DE
:103F8000DF91CF910895CF93DF93FC01603B34E044
:103F9000730708F445C0CA01860F971F8C3D9540F2
:103FA00008F040C0222339F02130F1F541155105C8
:103FB000E9F480E03CC041155105C1F1DB01AA0FD5
:103FC000BB1FAB5EB440CA01880F991F8E0F9F1FA5
:103FD000ED0111962C91119720831296288121834F
:103FE0003296E817F907A1F780E021C0EB01CC0F6A
:103FF000DD1FCB5ED4409A01220F331F2E0F3F1FCF
:10400000B081A0E0B983A8838181AD01482BCA01AA
:10401000899399933296E217F30791F780E007C0EE
:1040200081E005C081E003C080E001C080E0DF9155
:10403000CF91089581E0089581E008952F923F92F5
:104040004F925F926F927F928F929F92AF92BF92A8
:10405000CF92DF92EF92FF920F931F93CF93DF9354
:1040600000D000D0CDB7DEB7209155033091560374
:1040700040915703509158036091590370915A032E
:1040800080915B0390915C030E94552720912D0243
:1040900030912E0240912F02509130020E94942ABA
:1040A000C62ED72EE82EF92EE7EDF6E020813181DD
:1040B000428153810E941828262E372E482E592ED1
:1040C000EFECF6E020813181428153816C2D7D2D12
:1040D0008E2D9F2D0E941828662E772E882E992EC1
:1040E0002C2D3D2D4E2D5F2DEBECF6E06081718186
:1040F000828193810E941728A62EB72E89839A83E6
:1041000020912D0330912E0340912F0350913003C5
:104110006091350270913602809137029091380299
:104120000E94942A062F172F8C839B832C2D3D2DC4
:104130004E2D5F2DE3EDF6E06081718182819381E8
:104140000E941728FC81EB81202F312F4F2F5E2FEB
:104150000E941728E3EDF6E06083718382839383E6
:104160009C818B81202F312F492F582F622D732D49
:10417000842D952D0E941828E7EDF6E06083718369
:10418000828393839C818B81202F312F492F582F3D
:10419000662D772D882D992D0E941828EFECF6E0DA
:1041A00060837183828393839C818B81202F312F45
:1041B000492F582FE9811A816A2D7B2D8E2F912F3F
:1041C0000E941728EBECF6E060837183828393836F
:1041D0000F900F900F900F90DF91CF911F910F9143
:1041E000FF90EF90DF90CF90BF90AF909F908F9017
:1041F0007F906F905F904F903F902F9008952F92F7
:104200003F924F925F926F927F928F929F92AF9266
:10421000BF92CF92DF92EF92FF920F931F93CF93B3
:10422000DF93CDB7DEB728970FB6F894DEBF0FBE89
:10423000CDBF20916D0330916E0340916F0350917B
:10424000700360916503709166038091670390919C
:1042500068030E9417282091390230913A02409158
:104260003B0250913C020E94942A862E972EA82E43
:10427000B92E209191033091920340919303509174
:10428000940360913D0270913E0280913F029091B3
:1042900040020E94942AC62ED72EE82EF92EE7ED72
:1042A000F6E02081318142815381682D792D8A2D5C
:1042B0009B2D0E9418282C2D3D2D4E2D5F2D0E94E8
:1042C0001828262E372E89839A83282D392D4A2D9A
:1042D0005B2DEFECF6E060817181828193810E9419
:1042E00017282C2D3D2D4E2D5F2D0E9417286B83F6
:1042F0007C838D839E83EBECF6E0208131814281CB
:104300005381682D792D8A2D9B2D0E9418282C2DE4
:104310003D2D4E2D5F2D0E941828462E572E682EBB
:10432000792E209125033091260340912703509147
:104330002803609141027091420280914302909162
:1043400044020E94942A062F172F88879F83282DC6
:10435000392D4A2D5B2DE3EDF6E06081718182817C
:1043600093810E9417282C2D3D2D4E2D5F2D0E94EC
:104370001728F885EF81202F312F4F2F5E2F0E94B5
:104380001728E3EDF6E06083718382839383988539
:104390008F81202F312F492F582FF980EA80622DED
:1043A000732D8F2D9E2D0E941828E7EDF6E0608377
:1043B00071838283938398858F81202F312F492F9A
:1043C000582FBB81AC81FD80EE806B2F7A2F8F2D13
:1043D0009E2D0E941728EFECF6E0608371838283A4
:1043E000938398858F81202F312F492F582F642D4B
:1043F000752D862D972D0E941828EBECF6E0608332
:1044000071838283938328960FB6F894DEBF0FBE24
:10441000CDBFDF91CF911F910F91FF90EF90DF9073
:10442000CF90BF90AF909F908F907F906F905F9054
:104430004F903F902F9008952F923F924F925F920E
:104440006F927F928F929F92AF92BF92CF92DF92A4
:10445000EF92FF920F931F93CF93DF93CDB7DEB709
:1044600028970FB6F894DEBF0FBECDBF2091710321
:10447000309172034091730350917403609169030A
:1044800070916A0380916B0390916C030E941728CE
:104490002091390230913A0240913B0250913C0206
:1044A0000E94942A862E972EA82EB92E209195032D
:1044B00030919603409197035091980360913D028B
:1044C00070913E0280913F02909140020E94942A96
:1044D000C62ED72EE82EF92E282D392D4A2D5B2DEC
:1044E000E7EDF6E060817181828193810E94172857
:1044F0002C2D3D2D4E2D5F2D0E941728262E372E58
:1045000089839A83EFECF6E02081318142815381E7
:10451000682D792D8A2D9B2D0E9418282C2D3D2D3C
:104520004E2D5F2D0E9418286B837C838D839E8384
:10453000EBECF6E02081318142815381682D792DA9
:104540008A2D9B2D0E9418282C2D3D2D4E2D5F2D40
:104550000E941828462E572E682E792E2091290366
:1045600030912A0340912B0350912C03609141021A
:104570007091420280914302909144020E94942AD9
:10458000062F172F88879F83282D392D4A2D5B2DC5
:10459000E3EDF6E060817181828193810E941728AA
:1045A0002C2D3D2D4E2D5F2D0E941728F885EF8173
:1045B000202F312F4F2F5E2F0E941728E3EDF6E0BA
:1045C000608371838283938398858F81202F312F1D
:1045D000492F582FF980EA80622D732D8F2D9E2D43
:1045E0000E941728E7EDF6E060837183828393834E
:1045F00098858F81202F312F492F582FBB81AC8177
:10460000FD80EE806B2F7A2F8F2D9E2D0E94182813
:10461000EFECF6E0608371838283938398858F81CA
:10462000202F312F492F582F642D752D862D972D32
:104630000E941828EBECF6E06083718382839383F9
:1046400028960FB6F894DEBF0FBECDBFDF91CF9195
:104650001F910F91FF90EF90DF90CF90BF90AF90A0
:104660009F908F907F906F905F904F903F902F9092
:10467000089560919B0470919C0480E090E00E94FA
:1046800079296093CB067093CC068093CD069093E6
:10469000CE066093CF067093D0068093D106909398
:1046A000D2066093D3067093D4068093D506909378
:1046B000D6066093D7067093D8068093D906909358
:1046C000DA060E941E200E94FF200E941C228BEC12
:1046D00096E00E94281B08950E9481030E94120305
:1046E0000E9463090E94561010920F0110927503E8
:1046F0001092760310927703109278031092790348
:1047000010927A0310927B0310927C031092910313
:1047100010929203109293031092940310929503B7
:1047200010929603109297031092980380E00895D8
:1047300080910A018F5F80930A01E5E7F4E0948994
:1047400090FF11C0843008F493C080910B0188233E
:1047500009F488C00E941A080E946A0310920A0194
:1047600010920B0114C0E5E7F4E0948990FF0FC0AC
:10477000843068F080910B01811109C00E949C0770
:104780000E94530310920A0181E080930B01E5E738
:10479000F4E0848981FD0E94BC01E5E7F4E08489AE
:1047A00082FD0E94A309E5E7F4E0848983FD0E946D
:1047B000D010E5E7F4E0848985FF03C081E00E9422
:1047C0000212E5E7F4E0848986FF03C082E00E94DC
:1047D0000212E5E7F4E0848985FD06C0848986FD40
:1047E00003C080E00E940212E5E7F4E08489882398
:1047F00024F4848981E00E940E10E5E7F4E08489C6
:1048000088230CF08489E5E7F4E08489882324F088
:10481000848980E00E940E108FEC86B92091C1023D
:104820003091C2024091C3025091C402609185034D
:104830007091860380918703909188030E94DE28FF
:10484000882344F4E1E9F4E08081918182609183DE
:10485000808312C0E1E9F4E0808191818D7F9183B2
:1048600080830AC0E5E7F4E0848980FD87CF8FCF9D
:10487000E5E7F4E084898BCF80E008954F925F9262
:104880006F927F928F929F92AF92BF92CF92DF9260
:10489000EF92FF920F931F93CF93DF930F2EF9E0C8
:1048A000CF2EF3E0DF2EF02DF60180809180A280E4
:1048B000B38005E013E0F80160817181828193810A
:1048C000A50194010E948B2820E030E044E353E4EA
:1048D0000E94942A90582BED3FE049E450E40E9456
:1048E000E52860937D0370937E0380937F0390930C
:1048F00080030F2EF1E0EF2EF3E0FF2EF02DF701F5
:104900006081718182819381A50194010E948B282D
:1049100020E030E044E353E40E94942A2BED3FE092
:1049200049E450E40E94E528609381037093820378
:10493000809383039093840380909B0090909C00CD
:10494000A0909D00B0909E00C5E7D3E02091310378
:104950003091320340913303509134036091250329
:104960007091260380912703909128030E941828B4
:1049700020E030E040E05FE30E94942AA50194012A
:104980000E94942A9B01AC01688179818A819B8174
:104990000E941828688379838A839B83C9E7D3E0C0
:1049A00020913503309136034091370350913803FD
:1049B0006091290370912A0380912B0390912C031D
:1049C0000E94182820E030E040E05FE30E94942A33
:1049D0009B01AC01C501B4010E94942A9B01AC016A
:1049E000688179818A819B810E94182868837983F4
:1049F0008A839B83C9E9D3E02091390330913A033C
:104A000040913B0350913C0360912D0370912E0324
:104A100080912F03909130030E94182820E030E00D
:104A200040E05FE30E94942A9B01AC01C501B40100
:104A30000E94942A288139814A815B810E9418282A
:104A4000262F372F462F572F682F792F48835983CA
:104A50006A837B83622F732F0E94430A6883798362
:104A60008A839B83F70180819181A281B381BC01FC
:104A7000CD019F77F8010081118122813381A90145
:104A800098015F770E941828F60100811181228128
:104A90003381A90198015F770E94182820E030E057
:104AA00040E85FE30E9417289F77209175023091BC
:104AB000760240917702509178020E94DE28882386
:104AC0000CF052C0C0907D03D0907E03E0907F0335
:104AD000F0908003A70196016091750370917603B1
:104AE00080917703909178030E9417289F772091F7
:104AF000790230917A0240917B0250917C020E94AF
:104B0000DE2888238CF540908103509082036090CA
:104B1000830370908403A3019201609179037091E3
:104B20007A0380917B0390917C030E9417289F77E2
:104B300020917D0230917E0240917F02509180024F
:104B40000E94DE28882384F4C0927503D0927603F5
:104B5000E0927703F09278034092790350927A03BF
:104B600060927B0370927C030F2EF9E84F2EF3E0E6
:104B70005F2EF02D0F2EF5E6CF2EF3E0DF2EF02D79
:104B8000F60180819181A281B381F20180839183BA
:104B9000A283B383C9E6D3E088819981AA81BB81CE
:104BA00080938D0390938E03A0938F03B093900313
:104BB0000F2EF9E56F2EF3E07F2EF02DF3018081AB
:104BC0009181A281B3818093610390936203A0934A
:104BD0006303B0936403E0905D02F0905E02009185
:104BE0005F0210916002209175033091760340912D
:104BF00077035091780360917D0370917E038091DB
:104C00007F03909180030E94A908F601608371835D
:104C100082839383E0906102F090620200916302CC
:104C2000109164022091790330917A0340917B03C3
:104C300050917C0360918103709182038091830382
:104C4000909184030E94A908688379838A839B8357
:104C5000E0906502F0906602009167021091680290
:104C60002091990330919A0340919B0350919C03AA
:104C700060919D0370919E0380919F039091A0038A
:104C80000E94A908F3016083718382839383F201F8
:104C9000C080D180E280F38020E030E044EB52EC31
:104CA000C701B6010E94892A18160CF076C020E0D0
:104CB00030E044EB52E4C701B6010E94DE288823AD
:104CC0000CF06BC040908D0350908E0360908F036A
:104CD0007090900320E030E044EB52ECC301B2014D
:104CE0000E94892A18160CF058C020E030E044EBEE
:104CF00052E4C301B2010E94DE2888230CF04DC0AB
:104D0000C1E9D3E0209165033091660340916703C8
:104D100050916803C701B6010E94182820E030E0D6
:104D200040E05FE30E94942A9B01AC01C501B401FD
:104D30000E94942A9B01AC01688179818A819B81C0
:104D40000E941828688379838A839B83C5E9D3E00E
:104D50002091690330916A0340916B0350916C0379
:104D6000C301B2010E94182820E030E040E05FE378
:104D70000E94942A9B01AC01C501B4010E94942AAF
:104D80009B01AC01688179818A819B810E941828EE
:104D9000688379838A839B8310C010929103109259
:104DA0009203109293031092940310929503109221
:104DB00096031092970310929803C0909D02D09092
:104DC0009E02E0909F02F090A002A70196016091E0
:104DD00091037091920380919303909194030E94A8
:104DE000892A181644F4C0929103D0929203E0925B
:104DF0009303F09294032091950330919603409190
:104E0000970350919803C701B6010E94DE288823BA
:104E100044F4C0929503D0929603E0929703F092E7
:104E20009803F7FAF094F7F8F094A70196016091CF
:104E300091037091920380919303909194030E9447
:104E4000DE28882344F4C0929103D0929203E0922A
:104E50009303F0929403209195033091960340912F
:104E6000970350919803C701B6010E94892A18162A
:104E700044F4C0929503D0929603E0929703F09287
:104E80009803E5E7F4E08489DF91CF911F910F91BA
:104E9000FF90EF90DF90CF90BF90AF909F908F905A
:104EA0007F906F905F904F900895CF92DF92EF9236
:104EB000FF926B017C01CA01B901A70196010E9412
:104EC0001728C62ED72EE82EF92EC701B6019F77D8
:104ED00020E030E044E353E40E94DE28882314F10C
:104EE00020E030E0A901C701B6010E94892A181606
:104EF0006CF420E030E044EB53E4C701B6010E94BB
:104F00001728C62ED72EE82EF92E0CC020E030E050
:104F100044EB53E4C701B6010E941828C62ED72ED1
:104F2000E82EF92E6C2D7D2D8E2D9F2DFF90EF906C
:104F3000DF90CF90089578941F920F920FB60F9242
:104F400011242F933F934F935F936F937F938F938E
:104F50009F93AF93BF93EF93FF9380910C018111C7
:104F600010C081E080930C010E949823E5E7F4E0F3
:104F7000848984FF0E9439230E943E2410920C01F0
:104F800003C081E00E94BB1B80910D0190910E0136
:104F9000019690930E0180930D012091990030911C
:104FA0009A00A901440F551F4817590728F4109279
:104FB0000E0110920D0110C02817390768F4E5E7BB
:104FC000F4E0848D81FF08C0E1E9F4E08081918103
:104FD00081609183808307C0E1E9F4E08081918161
:104FE0008E7F9183808380911201843148F01092EA
:104FF0001201979A8AE38A95F1F700C0979806C044
:105000009798809112018F5F80931201FF91EF9129
:10501000BF91AF919F918F917F916F915F914F91D0
:105020003F912F910F900FBE0F901F9018955058E1
:10503000BB27AA270ED022C2EBD130F0F0D120F04E
:1050400031F49F3F11F41EF4BBC10EF4E095E7FB71
:10505000B1C1E92F35D280F3BA176207730784070D
:10506000950718F071F49EF54DC20EF4E0950B2EE5
:10507000BA2FA02D0B01B90190010C01CA01A001AA
:105080001124FF27591B99F0593F50F4503E68F105
:105090001A16F040A22F232F342F4427585FF3CF46
:1050A000469537952795A795F0405395C9F77EF417
:1050B0001F16BA0B620B730B840BBAF09150A1F060
:1050C000FF0FBB1F661F771F881FC2F70EC0BA0FE6
:1050D000621F731F841F48F4879577956795B7956E
:1050E000F7959E3F08F0B3CF9395880F08F0992766
:1050F000EE0F9795879508958BD158F080E891E051
:1051000009F49EEF8CD128F040E851E059F45EEFAD
:1051100009C056C1F7C1E92FE078D2D168F3092E52
:10512000052AC1F3261737074807590738F00E2E0E
:1051300007F8E02569F0E025E0640AC0EF6307F8AE
:10514000009407FADB01B9019D01DC01CA01AD0140
:10515000EF934AD093D10AD05F91552331F02BEDD4
:105160003FE049E450FD49EC63CF0895DF93DD272C
:10517000B92FBF7740E85FE31616170648075B07AD
:1051800010F4D92FCAD19F938F937F936F9377D2C7
:10519000E4E5F0E018D172D12F913F914F915F91EA
:1051A000CFD1DD2349F09058A2EA2AED3FE049EC47
:1051B0005FE3D0785D274DDFDF9160C1D7D008F481
:1051C00081E0089534D1E3956AC10CD057C127D14D
:1051D00040F01ED130F021F45F3F19F0EBC05111C7
:1051E00092C1EEC06DD198F39923C9F35523B1F361
:1051F000951B550BBB27AA2762177307840738F046
:105200009F5F5F4F220F331F441FAA1FA9F333D0A4
:105210000E2E3AF0E0E830D091505040E695001C58
:10522000CAF729D0FE2F27D0660F771F881FBB1F14
:10523000261737074807AB07B0E809F0BB0B802DEE
:10524000BF01FF2793585F4F2AF09E3F510568F03A
:10525000B1C059C15F3FECF3983EDCF3869577957A
:105260006795B795F7959F5FC9F7880F911D96953C
:10527000879597F90895E1E0660F771F881FBB1F98
:10528000621773078407BA0720F0621B730B840B45
:10529000BA0BEE1F88F7E09508951AD188F09F5752
:1052A00090F0B92F9927B751A0F0D1F0660F771F72
:1052B000881F991F1AF0BA95C9F712C0B13081F052
:1052C00021D1B1E008951EC1672F782F8827B85FDC
:1052D00039F0B93FCCF3869577956795B395D9F7B3
:1052E0003EF490958095709561957F4F8F4F9F4FBD
:1052F0000895E89409C097FB3EF4909580957095C9
:1053000061957F4F8F4F9F4F9923A9F0F92F96E911
:10531000BB279395F695879577956795B795F11186
:10532000F8CFFAF4BB0F11F460FF1BC06F5F7F4F23
:105330008F4F9F4F16C0882311F096E911C0772335
:1053400021F09EE8872F762F05C0662371F096E83E
:10535000862F70E060E02AF09A95660F771F881F0D
:10536000DAF7880F9695879597F90895990F0008B1
:10537000550FAA0BE0E8FEEF16161706E807F90727
:10538000C0F012161306E407F50798F0621B730BC2
:10539000840B950B39F40A2661F0232B242B252B43
:1053A00021F408950A2609F4A140A6958FEF811DE6
:1053B000811D089597F99F6780E870E060E0089587
:1053C0009FEF80EC0895DF93CF931F930F93FF928D
:1053D000EF92DF927B018C01689405C0DA2EEF0119
:1053E000AFD0FE01E894A591259135914591559155
:1053F000AEF3EF012EDEFE019701A801DA9479F7F2
:10540000DF90EF90FF900F911F91CF91DF91089562
:1054100000240A9416161706180609060895002493
:105420000A9412161306140605060895C9CF50D023
:10543000E8F3E894E0E0BB279F57F0F02AED3FE067
:1054400049EC06C0EE0FBB0F661F771F881F28F0C0
:10545000B23A62077307840728F0B25A620B730BE3
:10546000840BE3959A9572F7803830F49A95BB0FC8
:10547000661F771F881FD2F7904806C1092E039434
:10548000000C11F4882352F0BB0F40F4BF2B11F431
:1054900060FF04C06F5F7F4F8F4F9F4F0895EF9362
:1054A000E0FF06C0A2EA2AED3FE049EC5FEBD1DD68
:1054B000E5DF0F90039401FC9058E1E8F0E0F7C0BD
:1054C00057FD9058440F551F59F05F3F71F04795B5
:1054D000880F97FB991F61F09F3F79F0879508959A
:1054E000121613061406551FF2CF4695F1DF08C0B9
:1054F000161617061806991FF1CF869571056105D6
:1055000008940895E894BB2766277727CB0197F97D
:1055100008952CDF08F48FEF08959B01AC0160E043
:1055200070E080E89FE351CE0BD0A8CF71DF28F068
:1055300076DF18F0952309F03DCF42CF1124E3CF59
:10554000BFDFA0F3959FD1F3950F50E0551F629FE9
:10555000F001729FBB27F00DB11D639FAA27F00DCC
:10556000B11DAA1F649F6627B00DA11D661F829FF3
:105570002227B00DA11D621F739FB00DA11D621FD8
:10558000839FA00D611D221F749F3327A00D611DF5
:10559000231F849F600D211D822F762F6A2F1124D7
:1055A0009F5750408AF0E1F088234AF0EE0FFF1F2A
:1055B000BB1F661F771F881F91505040A9F79E3F61
:1055C000510570F0F7CE9FCF5F3FECF3983EDCF3D0
:1055D000869577956795B795F795E7959F5FC1F79E
:1055E000FE2B880F911D9695879597F908959F93A7
:1055F0001EDF0F9007FCEE5F52CF11F40EF4E0CEE9
:1056000041C066DFD0F39923D9F3CEF39F57550BF2
:1056100087FF46D00024A0E640EA900180585695C6
:10562000979528F4805C660F771F881F20F0261757
:105630003707480730F4621B730B840B202931298C
:105640004A2BA69517940794202531254A2758F709
:10565000660F771F881F20F026173707480730F49A
:10566000620B730B840B200D311D411DA09581F73A
:10567000B901842F9158880F9695879508959B01BD
:10568000AC0152CF9F3F31F0915020F48795779530
:105690006795B795880F911D9695879597F9089509
:1056A00091505040660F771F881FD2F708959F933F
:1056B0008F937F936F93FF93EF939B01AC0134DF44
:1056C000EF91FF9180DE2F913F914F915F912CCF11
:1056D000DB018F939F930E94C22BBF91AF91A29F3A
:1056E000800D911DA39F900DB29F900D11240895E0
:1056F000A1E21A2EAA1BBB1BFD010DC0AA1FBB1FD6
:10570000EE1FFF1FA217B307E407F50720F0A21B47
:10571000B30BE40BF50B661F771F881F991F1A94B4
:1057200069F760957095809590959B01AC01BD01DE
:10573000CF010895052E97FB16F4009407D057FD6E
:105740000DD00E94782B07FC09D07EF490958095AF
:10575000709561957F4F8F4F9F4F0895509540955D
:10576000309521953F4F4F4F5F4F0895A29FB00155
:10577000B39FC001A39F01D0B29F700D811D112462
:10578000911D08950E94B62BA59F900DB49F900D7A
:10579000A49F800D911D11240895B7FF0C94C22B76
:1057A0000E94C22B821B930B0895FB01DC0102C0F7
:1057B00001900D9241505040D8F70895A6E1B0E015
:1057C00044E050E00C94F32B242F0E94022C252F50
:1057D0000E94022C0C94EC2B0E94012C272F0C947D
:1057E000022CDC01CB01FC01E199FECF06C0FFBB1E
:1057F000EEBBE09A31960DB20D9241505040B8F791
:105800000895262FE199FECF9FBB8EBB2DBB0FB60F
:10581000F894E29AE19A0FBE01960895F894FFCFAA
:1058200002116618041118033F1710FF1606E3163D
:10583000178F1701861505ED150F2716027D160027
:105840000000000000000000000000000000000058
:105850000000000000BCC7F53B3200BD37863B00AE
:00000001FF
